130203000501CLMCHR78C58F205RGRECO                         IOLE MARIA                          GRCLMR47R45L186C20510194706802820301000501PIE25116030069
130203000501CLMCHR78C58F205RGRECO                         IOLE MARIA                          GRCLMR47R45L186C20510194706802820399000501PIE25116030069
1302030005010000987654      NAZZARRO                      DORA                                NZZDRO85D68G482V22804198506800420301000501PIE25110614069
1302030005010000987654      NAZZARRO                      DORA                                NZZDRO85D68G482V22804198506800420302000501PIE25110614069
1302030005010000987654      NAZZARRO                      DORA                                NZZDRO85D68G482V22804198506800420399000501PIE25110614069
130203000501GRLCLD77R71D542FD'AMICO                       MARIA GRADITA                       DMCMGR60P57C096F21709196006802420301000501PIE25110496069
130203000501GRLCLD77R71D542FD'AMICO                       MARIA GRADITA                       DMCMGR60P57C096F21709196006802420399000501PIE25110496069
13020300050168047318        TAVANI                        ANNADOMENICA                        TVNNDM52L62C750M22207195206802420301000501PIE25117999058
13020300050168047318        TAVANI                        ANNADOMENICA                        TVNNDM52L62C750M22207195206802420399000501PIE25117999058
130203000501998887          RANALLI                       PANFILO                             RNLPFL60C24I520P12403196006908720201000501PIE25117850058
130203000501998887          RANALLI                       PANFILO                             RNLPFL60C24I520P12403196006908720299000501PIE25117850058
1302030005010000987654      BANDRIVSKA                    VIRA                                BNDVRI65P50Z138D21009196506802420301000501PIE25118000058
1302030005010000987654      BANDRIVSKA                    VIRA                                BNDVRI65P50Z138D21009196506802420399000501PIE25118000058
13020300050168008085        FOSSEMO'                      GIUSEPPE                            FSSGPP60M01Z614U10108196006802420301000501PIE25117166069
13020300050168008085        FOSSEMO'                      GIUSEPPE                            FSSGPP60M01Z614U10108196006802420399000501PIE25117166069
1302030005010000002411      MOLINO                        GIADA                               MLNGDI78P43B157C20309197806802820301000501PIE25111415069
1302030005010000002411      MOLINO                        GIADA                               MLNGDI78P43B157C20309197806802820399000501PIE25111415069
1302030005010000002411      MOLINO                        GIADA                               MLNGDI78P43B157C20309197806802820301000501PIE25111413069
1302030005010000002411      MOLINO                        GIADA                               MLNGDI78P43B157C20309197806802820399000501PIE25111413069
13020300050168-04370/2      DI GENNARO                    RITA                                DGNRTI51C48L597I20803195106802820301000501PIE25113624005
13020300050168-04370/2      DI GENNARO                    RITA                                DGNRTI51C48L597I20803195106802820399000501PIE25113624005
13020300050168 04211 7      MARCHETTI                     MARIO                               MRCMRA58E21F535W12105195806802820301000501PIE25113602005
13020300050168 04211 7      MARCHETTI                     MARIO                               MRCMRA58E21F535W12105195806802820399000501PIE25113602005
13020300050168 045819       PIETRANGELO                   GIUSEPPE                            PTRGPP50T19H425E11912195006803420301000501PIE25117555005
13020300050168 045819       PIETRANGELO                   GIUSEPPE                            PTRGPP50T19H425E11912195006803420399000501PIE25117555005
13020300050168062092        LA CAPRUCCIA                  CATIA                               LCPCTA66H62Z110X22206196606803320301000501PIE25113279058
13020300050168062092        LA CAPRUCCIA                  CATIA                               LCPCTA66H62Z110X22206196606803320399000501PIE25113279058
130203000501FRNDRH67C51H501QBONIFACIO                     MARIA                               BNFMRA53E59I158Z21905195306802820301000501PIE25111719069
130203000501FRNDRH67C51H501QBONIFACIO                     MARIA                               BNFMRA53E59I158Z21905195306802820302000501PIE25111719069
130203000501FRNDRH67C51H501QBONIFACIO                     MARIA                               BNFMRA53E59I158Z21905195306802820399000501PIE25111719069
1302030005014253            MASTROIANNI                   GIUSEPPINA                          MSTGPP41C59I838I21903194106802820301000501PIE25117770005
1302030005014253            MASTROIANNI                   GIUSEPPINA                          MSTGPP41C59I838I21903194106802820399000501PIE25117770005
130203000501999889          CAROTA                        MONICA ISABELLA                     CRTMCS58P44Z600T20409195806802820301000501PIE25112708005
130203000501999889          CAROTA                        MONICA ISABELLA                     CRTMCS58P44Z600T20409195806802820399000501PIE25112708005
13020300050168048052        MARINI                        MARINELLA                           MRNMNL57B44G924N20402195706802820301000501PIE25117771005
13020300050168048052        MARINI                        MARINELLA                           MRNMNL57B44G924N20402195706802820399000501PIE25117771005
1302030005010000004198      FUSCO                         DOMENICANTONIO                      FSCDNC49A08G482X10801194906802820301000501PIE25113516005
1302030005010000004198      FUSCO                         DOMENICANTONIO                      FSCDNC49A08G482X10801194906802820399000501PIE25113516005
13020300050168044933        ROMANO                        MARIA ROSARIA                       RMNMRS59B59L259M21902195906802820301000501PIE25115304069
13020300050168044933        ROMANO                        MARIA ROSARIA                       RMNMRS59B59L259M21902195906802820302000501PIE25115304069
13020300050168044933        ROMANO                        MARIA ROSARIA                       RMNMRS59B59L259M21902195906802820399000501PIE25115304069
13020300050168-04763-0      PERILLI                       ROSANNA                             PRLRNN66M63Z133F22308196606801220301000501PIE25117154058
13020300050168-04763-0      PERILLI                       ROSANNA                             PRLRNN66M63Z133F22308196606801220302000501PIE25117154058
13020300050168-04763-0      PERILLI                       ROSANNA                             PRLRNN66M63Z133F22308196606801220399000501PIE25117154058
13020300050168062069        GIULIANI                      TIZIANA                             GLNTZN64T51C632I21112196406802020301000501PIE25116213058
13020300050168062069        GIULIANI                      TIZIANA                             GLNTZN64T51C632I21112196406802020399000501PIE25116213058
13020300050168-04370/2      MARCHIONNE                    MARIETTA                            MRCMTT55T67C771K22712195506802820301000501PIE25115884058
13020300050168-04370/2      MARCHIONNE                    MARIETTA                            MRCMTT55T67C771K22712195506802820302000501PIE25115884058
13020300050168-04370/2      MARCHIONNE                    MARIETTA                            MRCMTT55T67C771K22712195506802820399000501PIE25115884058
13020300050168043041        PENNESE                       BRUNO                               PNNBRN44A02G482B10201194406802820301000501PIE25117067008
13020300050168043041        PENNESE                       BRUNO                               PNNBRN44A02G482B10201194406802820302000501PIE25117067008
13020300050168043041        PENNESE                       BRUNO                               PNNBRN44A02G482B10201194406802820399000501PIE25117067008
13020300050168045572        NIANG                         MAMA DIARRA                         NNGMDR77D52Z343M21204197706802420301000501PIE25113256058
13020300050168045572        NIANG                         MAMA DIARRA                         NNGMDR77D52Z343M21204197706802420399000501PIE25113256058
13020300050160047374        DI SANTE                      ANTONIO                             DSNNTN46P18C750S11809194606802820301000501PIE25115905008
13020300050160047374        DI SANTE                      ANTONIO                             DSNNTN46P18C750S11809194606802820302000501PIE25115905008
13020300050160047374        DI SANTE                      ANTONIO                             DSNNTN46P18C750S11809194606802820399000501PIE25115905008
130203000501330-C.C.436     NARCISI                       ELEONORA                            NRCLNR78D67G482R22704197806804120301000501PIE25113015069
130203000501330-C.C.436     NARCISI                       ELEONORA                            NRCLNR78D67G482R22704197806804120302000501PIE25113015069
130203000501330-C.C.436     NARCISI                       ELEONORA                            NRCLNR78D67G482R22704197806804120399000501PIE25113015069
13020300050160047374        DI TOMMASO                    ELISABETTA                          DTMLBT58C45I641O20503195806802820301000501PIE25116999008
13020300050160047374        DI TOMMASO                    ELISABETTA                          DTMLBT58C45I641O20503195806802820302000501PIE25116999008
13020300050160047374        DI TOMMASO                    ELISABETTA                          DTMLBT58C45I641O20503195806802820399000501PIE25116999008
13020300050168007093        DELLA PENNA                   FRANCESCO                           DLLFNC53P19I922W11909195306804120301000501PIE25113933069
13020300050168007093        DELLA PENNA                   FRANCESCO                           DLLFNC53P19I922W11909195306804120399000501PIE25113933069
130203000501684398          IDOUDI                        HASNA                               DDIHSN67S50Z352N21011196706801120301000501PIE25110620069
130203000501684398          IDOUDI                        HASNA                               DDIHSN67S50Z352N21011196706801120399000501PIE25110620069
130203000501684141          FRAGASSO                      MARA                                FRGMRA52E47I922Q20705195206802420301000501PIE25113491058
130203000501684141          FRAGASSO                      MARA                                FRGMRA52E47I922Q20705195206802420399000501PIE25113491058
1302030005010000003833      CIARFELLA                     MARIO                               CRFMRA47D04C771J10404194706802820301000501PIE25116749008
1302030005010000003833      CIARFELLA                     MARIO                               CRFMRA47D04C771J10404194706802820302000501PIE25116749008
1302030005010000003833      CIARFELLA                     MARIO                               CRFMRA47D04C771J10404194706802820399000501PIE25116749008
1302030005010000004555      CRISANTE                      ENZO                                CRSNZE59M13F646F11308195906802420301000501PIE25115899005
1302030005010000004555      CRISANTE                      ENZO                                CRSNZE59M13F646F11308195906802420399000501PIE25115899005
1302030005010000004368      APPUGLIESE                    RITA                                PPGRTI44M52A080T21208194406802820301000501PIE25117031008
1302030005010000004368      APPUGLIESE                    RITA                                PPGRTI44M52A080T21208194406802820302000501PIE25117031008
1302030005010000004368      APPUGLIESE                    RITA                                PPGRTI44M52A080T21208194406802820399000501PIE25117031008
13020300050168049061        MELLINI                       LORELLA                             MLLLLL58S61G482W22111195806802820301000501PIE25116769008
13020300050168049061        MELLINI                       LORELLA                             MLLLLL58S61G482W22111195806802820302000501PIE25116769008
13020300050168049061        MELLINI                       LORELLA                             MLLLLL58S61G482W22111195806802820399000501PIE25116769008
130203000501MLALCU93P04D086ZTSYMBALYUK                    LARYSA                              TSYLYS69H68Z138O22806196906802820301000501PIE25110602069
130203000501MLALCU93P04D086ZTSYMBALYUK                    LARYSA                              TSYLYS69H68Z138O22806196906802820399000501PIE25110602069
130203000501688             TRICCA                        FABIO                               TRCFBA74S26E892Y12611197406802220301000501PIE25115204058
130203000501688             TRICCA                        FABIO                               TRCFBA74S26E892Y12611197406802220399000501PIE25115204058
13020300050168044375        AMATI                         MORENA                              MTAMRN75E65G482T22505197506804120301000501PIE25115436069
13020300050168044375        AMATI                         MORENA                              MTAMRN75E65G482T22505197506804120399000501PIE25115436069
1302030005010000004459      DI GREGORIO                   RICCARDO                            DGRRCR61B21G555L12102196106803020301000501PIE25116693008
1302030005010000004459      DI GREGORIO                   RICCARDO                            DGRRCR61B21G555L12102196106803020302000501PIE25116693008
1302030005010000004459      DI GREGORIO                   RICCARDO                            DGRRCR61B21G555L12102196106803020399000501PIE25116693008
1302030005013792            LIBERI                        FRANCO                              LBRFNC40P24G482N12409194006802820301000501PIE25115837008
1302030005013792            LIBERI                        FRANCO                              LBRFNC40P24G482N12409194006802820302000501PIE25115837008
1302030005013792            LIBERI                        FRANCO                              LBRFNC40P24G482N12409194006802820399000501PIE25115837008
1302030005010000004459      CIERVO                        MARCO                               CRVMRC62M05A271K10508196206802820301000501PIE25114965005
1302030005010000004459      CIERVO                        MARCO                               CRVMRC62M05A271K10508196206802820399000501PIE25114965005
13020300050168045572        BONACERA                      CHIARA                              BNCCHR95L65G438K22507199506802420301000501PIE25117051008
13020300050168045572        BONACERA                      CHIARA                              BNCCHR95L65G438K22507199506802420302000501PIE25117051008
13020300050168045572        BONACERA                      CHIARA                              BNCCHR95L65G438K22507199506802420399000501PIE25117051008
1302030005010000004362      FORLONE                       MARIA VITTORIA                      FRLMVT44B59F765Z21902194406802820301000501PIE25116743008
1302030005010000004362      FORLONE                       MARIA VITTORIA                      FRLMVT44B59F765Z21902194406802820302000501PIE25116743008
1302030005010000004362      FORLONE                       MARIA VITTORIA                      FRLMVT44B59F765Z21902194406802820399000501PIE25116743008
13020300050113016           DI CRESCENZO                  MARIA ADDOLORATA                    DCRMDD54P57C750C21709195406801120301000501PIE25111452069
13020300050113016           DI CRESCENZO                  MARIA ADDOLORATA                    DCRMDD54P57C750C21709195406801120302000501PIE25111452069
13020300050113016           DI CRESCENZO                  MARIA ADDOLORATA                    DCRMDD54P57C750C21709195406801120399000501PIE25111452069
13020300050135              SANROCCO                      GIOVANNI                            SNRGNN42D24L263A12404194206802820301000501PIE25117737005
13020300050135              SANROCCO                      GIOVANNI                            SNRGNN42D24L263A12404194206802820399000501PIE25117737005
130203000501SNTSRA60A66Z103EBRANDOLINO                    LAWRENCE ANTHONY                    BRNLRN58E02Z404R10205195806803920301000501PIE25114562069
130203000501SNTSRA60A66Z103EBRANDOLINO                    LAWRENCE ANTHONY                    BRNLRN58E02Z404R10205195806803920399000501PIE25114562069
13020300050168040576        PICCARI                       CLAUDIA                             PCCCLD81C50A488I21003198106802420301000501PIE25116761069
13020300050168040576        PICCARI                       CLAUDIA                             PCCCLD81C50A488I21003198106802420302000501PIE25116761069
13020300050168040576        PICCARI                       CLAUDIA                             PCCCLD81C50A488I21003198106802420399000501PIE25116761069
1302030005010000004368      DI MEDIO                      RITA                                DMDRTI54E61Z602M22105195406802820301000501PIE25116694008
1302030005010000004368      DI MEDIO                      RITA                                DMDRTI54E61Z602M22105195406802820302000501PIE25116694008
1302030005010000004368      DI MEDIO                      RITA                                DMDRTI54E61Z602M22105195406802820399000501PIE25116694008
13020300050168043041        FORTE                         MARISA                              FRTMRS45M53L284D21308194506802820301000501PIE25117615069
13020300050168043041        FORTE                         MARISA                              FRTMRS45M53L284D21308194506802820399000501PIE25117615069
130203000501RMNMHL83L24E435QCICCHETTI                     LUIGI ATTILIO                       CCCLTT35S12H986H11211193506802820301000501PIE25115150069
130203000501RMNMHL83L24E435QCICCHETTI                     LUIGI ATTILIO                       CCCLTT35S12H986H11211193506802820399000501PIE25115150069
1302030005010000004198      D'AGNESE                      LORELLA                             DGNLLL59H47I922Z20706195906804120301000501PIE25117025008
1302030005010000004198      D'AGNESE                      LORELLA                             DGNLLL59H47I922Z20706195906804120302000501PIE25117025008
1302030005010000004198      D'AGNESE                      LORELLA                             DGNLLL59H47I922Z20706195906804120399000501PIE25117025008
130203000501MRNFNC76R08A225WRECCHIA                       TIZIANA                             RCCTZN61M66C354S22608196106802820301000501PIE25113920069
130203000501MRNFNC76R08A225WRECCHIA                       TIZIANA                             RCCTZN61M66C354S22608196106802820399000501PIE25113920069
130203000501GLNVCN60C27D643XPARRINI                       ANDREA                              PRRNDR89P29G482R12909198906802820301000501PIE25113481058
130203000501GLNVCN60C27D643XPARRINI                       ANDREA                              PRRNDR89P29G482R12909198906802820302000501PIE25113481058
130203000501GLNVCN60C27D643XPARRINI                       ANDREA                              PRRNDR89P29G482R12909198906802820399000501PIE25113481058
130203000501MRNFNC76R08A225WRENZETTI                      EMILIA                              RNZMLE46L47F646N20707194606802820301000501PIE25115094069
130203000501MRNFNC76R08A225WRENZETTI                      EMILIA                              RNZMLE46L47F646N20707194606802820399000501PIE25115094069
13020300050168041579        TAUCCI                        GIOVANNI                            TCCGNN69T22D643E12212196906802420301000501PIE25111765058
13020300050168041579        TAUCCI                        GIOVANNI                            TCCGNN69T22D643E12212196906802420302000501PIE25111765058
13020300050168041579        TAUCCI                        GIOVANNI                            TCCGNN69T22D643E12212196906802420399000501PIE25111765058
1302030005015842486         CARUSO                        FERDINANDO                          CRSFDN47H21F230E12106194706802820301000501PIE25117813069
1302030005015842486         CARUSO                        FERDINANDO                          CRSFDN47H21F230E12106194706802820399000501PIE25117813069
1302030005010000004425      D'ADDAZIO                     ANTONIETTA                          DDDNNT47T51G438L21112194706801120301000501PIE25116778069
1302030005010000004425      D'ADDAZIO                     ANTONIETTA                          DDDNNT47T51G438L21112194706801120399000501PIE25116778069
130203000501684404          PAOLINI                       ANGELA                              PLNNGL51P66C279Q22609195106802820301000501PIE25112880058
130203000501684404          PAOLINI                       ANGELA                              PLNNGL51P66C279Q22609195106802820399000501PIE25112880058
13020300050168/04536/7      SBORLINI                      IRMA                                SBRRMI55L57L263H21707195506804320301000501PIE25116036069
13020300050168/04536/7      SBORLINI                      IRMA                                SBRRMI55L57L263H21707195506804320399000501PIE25116036069
130203000501RSNMRA63H15E691NMAZZATENTA                    VALERIA                             MZZVLR76B62G438X22202197606802120301000501PIE25112151069
130203000501RSNMRA63H15E691NMAZZATENTA                    VALERIA                             MZZVLR76B62G438X22202197606802120399000501PIE25112151069
13020300050144216           DI LABIO                      GILBERTO                            DLBGBR47R30G482T13010194706802820301000501PIE25114350069
13020300050144216           DI LABIO                      GILBERTO                            DLBGBR47R30G482T13010194706802820399000501PIE25114350069
13020300050168 04211 7      GENTILE                       SILVANA                             GNTSVN44D41I804N20104194406802820301000501PIE25116706069
13020300050168 04211 7      GENTILE                       SILVANA                             GNTSVN44D41I804N20104194406802820302000501PIE25116706069
13020300050168 04211 7      GENTILE                       SILVANA                             GNTSVN44D41I804N20104194406802820303000501PIE25116706069
13020300050168 04211 7      GENTILE                       SILVANA                             GNTSVN44D41I804N20104194406802820399000501PIE25116706069
13020300050168041922        AVOLIO                        MARIA                               VLAMRA39H65H501K22506193906802820301000501PIE25110523069
13020300050168041922        AVOLIO                        MARIA                               VLAMRA39H65H501K22506193906802820399000501PIE25110523069
13020300050168021387        CHIARELLA                     LIDIA                               CHRLDI54T46A885G20612195406802420301000501PIE25116925008
13020300050168021387        CHIARELLA                     LIDIA                               CHRLDI54T46A885G20612195406802420302000501PIE25116925008
13020300050168021387        CHIARELLA                     LIDIA                               CHRLDI54T46A885G20612195406802420399000501PIE25116925008
130203000501VCRSLV94B62G482XD'AGOSTINO                    NINO                                DGSNNI63B07G555I10702196306803020301000501PIE25117176069
130203000501VCRSLV94B62G482XD'AGOSTINO                    NINO                                DGSNNI63B07G555I10702196306803020399000501PIE25117176069
13020300050169046553        RIDOLFI                       MAURIZIO                            RDLMRZ55S20G482R12011195506802820301000501PIE25115780008
13020300050169046553        RIDOLFI                       MAURIZIO                            RDLMRZ55S20G482R12011195506802820302000501PIE25115780008
13020300050169046553        RIDOLFI                       MAURIZIO                            RDLMRZ55S20G482R12011195506802820399000501PIE25115780008
130203000501DDNMLN83P51G438WDE ANGELIS                    DANIELA                             DNGDNL80B45H501V20502198006802420301000501PIE25115923069
130203000501DDNMLN83P51G438WDE ANGELIS                    DANIELA                             DNGDNL80B45H501V20502198006802420399000501PIE25115923069
1302030005010000002201      STEFANINI                     ANNA ANTONIA                        STFNNT41R64E098G22410194106802820301000501PIE25116623008
1302030005010000002201      STEFANINI                     ANNA ANTONIA                        STFNNT41R64E098G22410194106802820302000501PIE25116623008
1302030005010000002201      STEFANINI                     ANNA ANTONIA                        STFNNT41R64E098G22410194106802820399000501PIE25116623008
130203000501NTNRNN60A58G482VMADONINI                      ALESSANDRA                          MDNLSN69S54C632W21411196906804420301000501PIE25112424069
130203000501NTNRNN60A58G482VMADONINI                      ALESSANDRA                          MDNLSN69S54C632W21411196906804420399000501PIE25112424069
130203000501FSCWTR75D11G482RCOSTANTINI                    TERESA                              CSTTRS47P42D501W20209194706801920301000501PIE25112809069
130203000501FSCWTR75D11G482RCOSTANTINI                    TERESA                              CSTTRS47P42D501W20209194706801920399000501PIE25112809069
130203000501DMRTRS91M50A488YDI DOMIZIO                    DANIELA                             DDMDNL74R50D201B21010197406801720301000501PIE25117768069
130203000501DMRTRS91M50A488YDI DOMIZIO                    DANIELA                             DDMDNL74R50D201B21010197406801720399000501PIE25117768069
130203000501728             MANENTI                       ENZO                                MNNNZE75D30I441P13004197506802820301000501PIE25116777008
130203000501728             MANENTI                       ENZO                                MNNNZE75D30I441P13004197506802820302000501PIE25116777008
130203000501728             MANENTI                       ENZO                                MNNNZE75D30I441P13004197506802820399000501PIE25116777008
13020300050168043053        STRUFFOLINO                   MICHELA                             STRMHL58D67E791E22704195806800620301000501PIE25113131069
13020300050168043053        STRUFFOLINO                   MICHELA                             STRMHL58D67E791E22704195806800620399000501PIE25113131069
13020300050168043041        MORELLI                       ANDREA                              MRLNDR72H26Z133I12606197206802820301000501PIE25116199069
13020300050168043041        MORELLI                       ANDREA                              MRLNDR72H26Z133I12606197206802820399000501PIE25116199069
13020300050168-04763-0      DI BRIGIDA                    PAOLO                               DBRPLA46R26G482Z12610194606801220301000501PIE25115883008
13020300050168-04763-0      DI BRIGIDA                    PAOLO                               DBRPLA46R26G482Z12610194606801220302000501PIE25115883008
13020300050168-04763-0      DI BRIGIDA                    PAOLO                               DBRPLA46R26G482Z12610194606801220399000501PIE25115883008
130203000501MZZLGU58L18G482DDI CARLO                      GIANMARCO                           DCRGMR04T30G482F13012200406802520301000501PIE25117121069
130203000501MZZLGU58L18G482DDI CARLO                      GIANMARCO                           DCRGMR04T30G482F13012200406802520399000501PIE25117121069
13020300050113016           TROIANO                       PINA                                TRNPNI50S44H562H20411195006801120301000501PIE25117702005
13020300050113016           TROIANO                       PINA                                TRNPNI50S44H562H20411195006801120302000501PIE25117702005
13020300050113016           TROIANO                       PINA                                TRNPNI50S44H562H20411195006801120303000501PIE25117702005
13020300050113016           TROIANO                       PINA                                TRNPNI50S44H562H20411195006801120399000501PIE25117702005
13020300050167083994        TONTODONATI                   ARGIA DORA                          TNTRDR66H56C632J21606196606802420301000501PIE25110556058
13020300050167083994        TONTODONATI                   ARGIA DORA                          TNTRDR66H56C632J21606196606802420399000501PIE25110556058
130203000501LRCVNT83L71B180ZPAOLETTI                      GRAZIA                              PLTGRZ43P49C415C20909194306802820301000501PIE25115551069
130203000501LRCVNT83L71B180ZPAOLETTI                      GRAZIA                              PLTGRZ43P49C415C20909194306802820399000501PIE25115551069
130203000501DGVLRI87E42G438BVANNONI                       SILVANA                             VNNSVN71A65G482U22501197106802820301000501PIE25117784069
130203000501DGVLRI87E42G438BVANNONI                       SILVANA                             VNNSVN71A65G482U22501197106802820399000501PIE25117784069
13020300050184951           PASSERI                       CONCETTA                            PSSCCT54P64G482S22409195406800620301000501PIE25112211069
13020300050184951           PASSERI                       CONCETTA                            PSSCCT54P64G482S22409195406800620399000501PIE25112211069
130203000501740             AMOROSO                       GIUSEPPINA                          MRSGPP48C47G482M20703194806802820301000501PIE25113496036
130203000501740             AMOROSO                       GIUSEPPINA                          MRSGPP48C47G482M20703194806802820399000501PIE25113496036
13020300050113016           FAIETA                        VALENTINA                           FTAVNT87A71G482Z23101198706801120301000501PIE25111396069
13020300050113016           FAIETA                        VALENTINA                           FTAVNT87A71G482Z23101198706801120399000501PIE25111396069
13020300050168 020350       DYGA                          ALISSA MARIE SOPHIE                 DYGLSM07H66Z112C22606200706801520301000501PIE25112737036
13020300050168 020350       DYGA                          ALISSA MARIE SOPHIE                 DYGLSM07H66Z112C22606200706801520399000501PIE25112737036
130203000501VCRSLV94B62G482XPROSPERO                      FRANCESCO                           PRSFNC47M22C474X12208194706801120301000501PIE25115065069
130203000501VCRSLV94B62G482XPROSPERO                      FRANCESCO                           PRSFNC47M22C474X12208194706801120399000501PIE25115065069
1302030005010000003405      TROIANO                       MILVA                               TRNMLV62H66G482P22606196206803020301000501PIE25111456008
1302030005010000003405      TROIANO                       MILVA                               TRNMLV62H66G482P22606196206803020399000501PIE25111456008
130203000501GMPJMR74H57C632DTROVARELLI                    ADA                                 TRVDAA39M50E892S21008193906802220301000501PIE25113200069
130203000501GMPJMR74H57C632DTROVARELLI                    ADA                                 TRVDAA39M50E892S21008193906802220399000501PIE25113200069
130203000501DDNGNS81T70G482ODE MEIS                       CAMILLO                             DMSCLL61E30E892K13005196106802220301000501PIE25113100036
130203000501DDNGNS81T70G482ODE MEIS                       CAMILLO                             DMSCLL61E30E892K13005196106802220399000501PIE25113100036
130203000501DLLVCN58B63C632QLOMBARDI                      ADELE                               LMBDLA64A62B519M22201196406802820301000501PIE25117297069
130203000501DLLVCN58B63C632QLOMBARDI                      ADELE                               LMBDLA64A62B519M22201196406802820302000501PIE25117297069
130203000501DLLVCN58B63C632QLOMBARDI                      ADELE                               LMBDLA64A62B519M22201196406802820399000501PIE25117297069
130203000501TRPNCL55S07L103YSPADONE                       ERIKA                               SPDRKE98L65G482H22507199806802820301000501PIE25113834069
130203000501TRPNCL55S07L103YSPADONE                       ERIKA                               SPDRKE98L65G482H22507199806802820399000501PIE25113834069
130203000501ZPPMRT83R46L780KMARINI                        VENERE                              MRNVNR45B42E691I20202194506801120301000501PIE25114103008
130203000501ZPPMRT83R46L780KMARINI                        VENERE                              MRNVNR45B42E691I20202194506801120302000501PIE25114103008
130203000501ZPPMRT83R46L780KMARINI                        VENERE                              MRNVNR45B42E691I20202194506801120399000501PIE25114103008
130203000501FNTGLI65A42G499DDI PIETRO                     ANTONIETTA                          DPTNNT49D67E691I22704194906802420301000501PIE25117726069
130203000501FNTGLI65A42G499DDI PIETRO                     ANTONIETTA                          DPTNNT49D67E691I22704194906802420302000501PIE25117726069
130203000501FNTGLI65A42G499DDI PIETRO                     ANTONIETTA                          DPTNNT49D67E691I22704194906802420399000501PIE25117726069
130203000501CLMSRA92C55G482EVARANI                        GABRIELLA                           VRNGRL62S41L103T20111196206802420301000501PIE25114181008
130203000501CLMSRA92C55G482EVARANI                        GABRIELLA                           VRNGRL62S41L103T20111196206802420302000501PIE25114181008
130203000501CLMSRA92C55G482EVARANI                        GABRIELLA                           VRNGRL62S41L103T20111196206802420399000501PIE25114181008
1302030005016844158         SCHIAVONE                     ELISABETTA                          SCHLBT57H42G482F20206195706802820301000501PIE25116165005
1302030005016844158         SCHIAVONE                     ELISABETTA                          SCHLBT57H42G482F20206195706802820302000501PIE25116165005
1302030005016844158         SCHIAVONE                     ELISABETTA                          SCHLBT57H42G482F20206195706802820399000501PIE25116165005
1302030005016000            FERMO                         MARIVANNA                           FRMMVN55S68G482K22811195506803020301000501PIE25117063058
1302030005016000            FERMO                         MARIVANNA                           FRMMVN55S68G482K22811195506803020399000501PIE25117063058
13020300050168041978        DI CLEMENTE                   MAURIZIO                            DCLMRZ65R14B681Q11410196506800620301000501PIE25113255069
13020300050168041978        DI CLEMENTE                   MAURIZIO                            DCLMRZ65R14B681Q11410196506800620302000501PIE25113255069
13020300050168041978        DI CLEMENTE                   MAURIZIO                            DCLMRZ65R14B681Q11410196506800620399000501PIE25113255069
130203000501TSTMGR79P58B519XVEGAS                         VICTORIA YUMAR                      VGSVTR46S57Z614X21711194606802820301000501PIE25115413069
130203000501TSTMGR79P58B519XVEGAS                         VICTORIA YUMAR                      VGSVTR46S57Z614X21711194606802820399000501PIE25115413069
13020300050147352           TEKLAY                        GHIRMAY                             TKLGRM86A01Z368H10101198606802820301000501PIE25113158036
13020300050147352           TEKLAY                        GHIRMAY                             TKLGRM86A01Z368H10101198606802820399000501PIE25113158036
130203000501DNNLSN58T25L719UMICHELUCCI                    MARIO                               MCHMRA58P25G482U12509195806802820301000501PIE25117471069
130203000501DNNLSN58T25L719UMICHELUCCI                    MARIO                               MCHMRA58P25G482U12509195806802820399000501PIE25117471069
13020300050164783           PEPE                          MARGHERITA                          PPEMGH49H61G482A22106194906802820301000501PIE25115919008
13020300050164783           PEPE                          MARGHERITA                          PPEMGH49H61G482A22106194906802820302000501PIE25115919008
13020300050164783           PEPE                          MARGHERITA                          PPEMGH49H61G482A22106194906802820399000501PIE25115919008
1302030005014461            SANITA'                       ANIA                                SNTNAI60E68C322W22805196006802720301000501PIE25117573069
1302030005014461            SANITA'                       ANIA                                SNTNAI60E68C322W22805196006802720399000501PIE25117573069
130203000501CLLBBR73B44G482VPETRYY                        OKSANA                              PTRKSN64E62Z138V22205196406802420301000501PIE25113497036
130203000501CLLBBR73B44G482VPETRYY                        OKSANA                              PTRKSN64E62Z138V22205196406802420399000501PIE25113497036
130203000501QRNFBN74H61F839XROTELLINI                     SABATINO                            RTLSTN50R28A345M12810195006802820301000501PIE25116342069
130203000501QRNFBN74H61F839XROTELLINI                     SABATINO                            RTLSTN50R28A345M12810195006802820399000501PIE25116342069
130203000501QRNFBN74H61F839XEVANGELISTA                   IDA                                 VNGDIA50L59E691B21907195006802820301000501PIE25116340069
130203000501QRNFBN74H61F839XEVANGELISTA                   IDA                                 VNGDIA50L59E691B21907195006802820399000501PIE25116340069
130203000501680205          OLIVEIRA DE SOUZA NASCIMIENTO DENISE                              LVRDNS81M48Z602Y20808198106803020301000501PIE25116805058
130203000501680205          OLIVEIRA DE SOUZA NASCIMIENTO DENISE                              LVRDNS81M48Z602Y20808198106803020399000501PIE25116805058
1302030005011613            DI PUCCHIO                    ENRICO                              DPCNRC67L21I838X12107196706802420301000501PIE25116988008
1302030005011613            DI PUCCHIO                    ENRICO                              DPCNRC67L21I838X12107196706802420302000501PIE25116988008
1302030005011613            DI PUCCHIO                    ENRICO                              DPCNRC67L21I838X12107196706802420399000501PIE25116988008
130203000501PLMNNA60P63H501MD'AGOSTINO                    CRISTIAN                            DGSCST83E18G438Q11805198306801420301000501PIE25112873058
130203000501PLMNNA60P63H501MD'AGOSTINO                    CRISTIAN                            DGSCST83E18G438Q11805198306801420399000501PIE25112873058
1302030005010000004880      GONZALEZ DE AVILA             CARMEN CECILIA                      GNZCMN60R56Z614V21610196006802820301000501PIE25111470008
1302030005010000004880      GONZALEZ DE AVILA             CARMEN CECILIA                      GNZCMN60R56Z614V21610196006802820399000501PIE25111470008
1302030005010000004880      AVILA ANGULO                  TOLENTINO                           VLNTNT57P10Z614S11009195706802820301000501PIE25115500008
1302030005010000004880      AVILA ANGULO                  TOLENTINO                           VLNTNT57P10Z614S11009195706802820399000501PIE25115500008
13020300050144114           PATTARA                       NICOLA                              PTTNCL68T02G482F10212196806802820301000501PIE25112732008
13020300050144114           PATTARA                       NICOLA                              PTTNCL68T02G482F10212196806802820399000501PIE25112732008
130203000501VNGRMN83P52G482TKURKA                         ANNA                                KRKNNA57C43Z138H20303195706802420301000501PIE25116337069
130203000501VNGRMN83P52G482TKURKA                         ANNA                                KRKNNA57C43Z138H20303195706802420399000501PIE25116337069
130203000501FLRMRC96B26I158AROMILIO                       ANTONIETTA                          RMLNNT52A58D823R21801195206910120201000501PIE25117175069
130203000501FLRMRC96B26I158AROMILIO                       ANTONIETTA                          RMLNNT52A58D823R21801195206910120299000501PIE25117175069
1302030005014461            D'ORAZIO                      ROBERTO                             DRZRRT67B15F441P11502196706802320301000501PIE25111617058
1302030005014461            D'ORAZIO                      ROBERTO                             DRZRRT67B15F441P11502196706802320399000501PIE25111617058
130203000501CRTDNC65H08L103FANTONACCI                     GIOVANNA                            NTNGNN77L66G438C22607197706802320301000501PIE25112722058
130203000501CRTDNC65H08L103FANTONACCI                     GIOVANNA                            NTNGNN77L66G438C22607197706802320399000501PIE25112722058
13020300050169046553        MATARAZZO                     STILLIANO                           MTRSLL56H02G482R10206195606802820301000501PIE25116997008
13020300050169046553        MATARAZZO                     STILLIANO                           MTRSLL56H02G482R10206195606802820302000501PIE25116997008
13020300050169046553        MATARAZZO                     STILLIANO                           MTRSLL56H02G482R10206195606802820399000501PIE25116997008
130203000501GNTFNC59L46Z700BONESTI                        ENNIO                               NSTNNE46M01C853Z10108194606801520301000501PIE25110438069
130203000501GNTFNC59L46Z700BONESTI                        ENNIO                               NSTNNE46M01C853Z10108194606801520399000501PIE25110438069
130203000501PLLFRI75A15A345WCIAMORRINI                    GIULIANA                            CMRGLN50E63E691H22305195006802120301000501PIE25115003008
130203000501PLLFRI75A15A345WCIAMORRINI                    GIULIANA                            CMRGLN50E63E691H22305195006802120399000501PIE25115003008
130203000501DFNLNR86R43C632TD'ALOISIO                     GIUSEPPINA                          DLSGPP46L71G555N23107194606803020301000501PIE25112531036
130203000501DFNLNR86R43C632TD'ALOISIO                     GIUSEPPINA                          DLSGPP46L71G555N23107194606803020399000501PIE25112531036
13020300050168 020350       ORSINI                        ELENA                               RSNLNE33M59C853M21908193306801520301000501PIE25117520069
13020300050168 020350       ORSINI                        ELENA                               RSNLNE33M59C853M21908193306801520399000501PIE25117520069
130203000501TRNMGR56L57L736EFAIETA                        MARIACIRIACA                        FTAMCR57M43G482O20308195706802820301000501PIE25115299008
130203000501TRNMGR56L57L736EFAIETA                        MARIACIRIACA                        FTAMCR57M43G482O20308195706802820399000501PIE25115299008
13020300050160131           DI GREGORIO                   UMBERTO                             DGRMRT89T02G878C10212198906804320301000501PIE25117529069
13020300050160131           DI GREGORIO                   UMBERTO                             DGRMRT89T02G878C10212198906804320302000501PIE25117529069
13020300050160131           DI GREGORIO                   UMBERTO                             DGRMRT89T02G878C10212198906804320303000501PIE25117529069
13020300050160131           DI GREGORIO                   UMBERTO                             DGRMRT89T02G878C10212198906804320399000501PIE25117529069
13020300050168 04211 7      D'ANDREA                      DINA                                DNDDNI46R47G621V20710194606802820301000501PIE25117236069
13020300050168 04211 7      D'ANDREA                      DINA                                DNDDNI46R47G621V20710194606802820399000501PIE25117236069
130203000501TRVSVN57C46Z345TDI MAURIZIO                   ITALIA                              DMRTLI58P65Z614V22509195806802820301000501PIE25117593058
130203000501TRVSVN57C46Z345TDI MAURIZIO                   ITALIA                              DMRTLI58P65Z614V22509195806802820399000501PIE25117593058
130203000501FNTGLI65A42G499DDELL'ELCE                     GIUSEPPE                            DLLGPP55D03F646N10304195506802420301000501PIE25111936069
130203000501FNTGLI65A42G499DDELL'ELCE                     GIUSEPPE                            DLLGPP55D03F646N10304195506802420399000501PIE25111936069
130203000501MRGSND77H41A345ECAPECCHI                      LORELLA                             CPCLLL59A66G482T22601195906802820301000501PIE25117942069
130203000501MRGSND77H41A345ECAPECCHI                      LORELLA                             CPCLLL59A66G482T22601195906802820302000501PIE25117942069
130203000501MRGSND77H41A345ECAPECCHI                      LORELLA                             CPCLLL59A66G482T22601195906802820303000501PIE25117942069
130203000501MRGSND77H41A345ECAPECCHI                      LORELLA                             CPCLLL59A66G482T22601195906802820304000501PIE25117942069
130203000501MRGSND77H41A345ECAPECCHI                      LORELLA                             CPCLLL59A66G482T22601195906802820399000501PIE25117942069
130203000501DGSDLF69M30D883QSPERANZA                      FIORELLA                            SPRFLL66R57G482E21710196606802820301000501PIE25114159008
130203000501DGSDLF69M30D883QSPERANZA                      FIORELLA                            SPRFLL66R57G482E21710196606802820302000501PIE25114159008
130203000501DGSDLF69M30D883QSPERANZA                      FIORELLA                            SPRFLL66R57G482E21710196606802820399000501PIE25114159008
130203000501962             SERAFINI                      ANNA                                SRFNNA60S52G482K21211196006802820301000501PIE25114176008
130203000501962             SERAFINI                      ANNA                                SRFNNA60S52G482K21211196006802820302000501PIE25114176008
130203000501962             SERAFINI                      ANNA                                SRFNNA60S52G482K21211196006802820399000501PIE25114176008
130203000501NTNRNN60A58G482VDI DONATO                     MATTIA                              DDNMTT93D28G878W12804199306801720301000501PIE25113666069
130203000501NTNRNN60A58G482VDI DONATO                     MATTIA                              DDNMTT93D28G878W12804199306801720399000501PIE25113666069
130203000501STPHDM66L51Z614KBARISANI                      ANTONIO                             BRSNTN55P29I158P12909195506802820301000501PIE25112768008
130203000501STPHDM66L51Z614KBARISANI                      ANTONIO                             BRSNTN55P29I158P12909195506802820399000501PIE25112768008
1302030005016906067/7       ALOISIO                       ADELE ANTONELLA                     LSADNT62A68G878D22801196206903520201000501PIE25116836069
1302030005016906067/7       ALOISIO                       ADELE ANTONELLA                     LSADNT62A68G878D22801196206903520202000501PIE25116836069
1302030005016906067/7       ALOISIO                       ADELE ANTONELLA                     LSADNT62A68G878D22801196206903520299000501PIE25116836069
13020300050148341           CECCONI                       BIANCA MARIA                        CCCBCM49H68G482O22806194906802820301000501PIE25117766005
13020300050148341           CECCONI                       BIANCA MARIA                        CCCBCM49H68G482O22806194906802820399000501PIE25117766005
130203000501DMCGDU90D20G482MCALVI                         MARIA FILOMENA                      CLVMFL53A70C779E23001195306801420301000501PIE25117114036
130203000501DMCGDU90D20G482MCALVI                         MARIA FILOMENA                      CLVMFL53A70C779E23001195306801420399000501PIE25117114036
130203000501686855          POMPONIO                      ENZO                                PMPNZE53C28G438H12803195306802420301000501PIE25114145008
130203000501686855          POMPONIO                      ENZO                                PMPNZE53C28G438H12803195306802420302000501PIE25114145008
130203000501686855          POMPONIO                      ENZO                                PMPNZE53C28G438H12803195306802420399000501PIE25114145008
130203000501686855          DI GIULIANTONIO               DOMENICO                            DGLDNC63M30Z112J13008196306802420301000501PIE25117298069
130203000501686855          DI GIULIANTONIO               DOMENICO                            DGLDNC63M30Z112J13008196306802420399000501PIE25117298069
130203000501TRVSVN57C46Z345TFRANCIOTTI                    TIZIANA                             FRNTZN57E67G482D22705195706802820301000501PIE25114245069
130203000501TRVSVN57C46Z345TFRANCIOTTI                    TIZIANA                             FRNTZN57E67G482D22705195706802820399000501PIE25114245069
130203000501VRRLRZ93A60L049SCOLAGRANDE                    LEONDINA                            CLGLDN50B47C853Z20702195006801520301000501PIE25113847069
130203000501VRRLRZ93A60L049SCOLAGRANDE                    LEONDINA                            CLGLDN50B47C853Z20702195006801520399000501PIE25113847069
130203000501PRMFRC97D14I804EBENTENUTO                     ERMELINDA                           BNTRLN83H57G878R21706198306803920301000501PIE25111351069
130203000501PRMFRC97D14I804EBENTENUTO                     ERMELINDA                           BNTRLN83H57G878R21706198306803920302000501PIE25111351069
130203000501PRMFRC97D14I804EBENTENUTO                     ERMELINDA                           BNTRLN83H57G878R21706198306803920399000501PIE25111351069
13020300050168047318        IANNACONE                     ASSUNTA                             NNCSNT45M54B294J21408194506802420301000501PIE25114456069
13020300050168047318        IANNACONE                     ASSUNTA                             NNCSNT45M54B294J21408194506802420399000501PIE25114456069
130203000501999889          DE ACETIS                     CARLA                               DCTCRL56D54G482I21404195606802820301000501PIE25111382069
130203000501999889          DE ACETIS                     CARLA                               DCTCRL56D54G482I21404195606802820302000501PIE25111382069
130203000501999889          DE ACETIS                     CARLA                               DCTCRL56D54G482I21404195606802820399000501PIE25111382069
130203000501682129          SATIRO                        STEFANO                             STRSFN65E05G482X10505196506804120301000501PIE25117599058
130203000501682129          SATIRO                        STEFANO                             STRSFN65E05G482X10505196506804120399000501PIE25117599058
13020300050167085524        GASPERINI                     GIORGIO                             GSPGRG56T23G453V12312195606802820301000501PIE25115051069
13020300050167085524        GASPERINI                     GIORGIO                             GSPGRG56T23G453V12312195606802820399000501PIE25115051069
1302030005015842486         PULINI                        ANNA RITA                           PLNNRT56M70G482R23008195606802820301000501PIE25114201069
1302030005015842486         PULINI                        ANNA RITA                           PLNNRT56M70G482R23008195606802820399000501PIE25114201069
13020300050163045926        GENTILUCCI                    EMANUELE                            GNTMNL71E06D451O10605197106802420301000501PIE25117012058
13020300050163045926        GENTILUCCI                    EMANUELE                            GNTMNL71E06D451O10605197106802420399000501PIE25117012058
130203000501352             SANTEUSANIO                   ILEANA                              SNTLNI88L54G141D21407198806802820301000501PIE25110732036
130203000501352             SANTEUSANIO                   ILEANA                              SNTLNI88L54G141D21407198806802820399000501PIE25110732036
130203000501RSNMRA63H15E691NDEL TRECCO                    FAUSTO                              DLTFST50M29E691U12908195006802120301000501PIE25112222069
130203000501RSNMRA63H15E691NDEL TRECCO                    FAUSTO                              DLTFST50M29E691U12908195006802120399000501PIE25112222069
130203000501PTRNLT83T45L113IMAGRINI                       ROSSANA                             MGRRSN80L52F051O21207198006802820301000501PIE25113934058
130203000501PTRNLT83T45L113IMAGRINI                       ROSSANA                             MGRRSN80L52F051O21207198006802820399000501PIE25113934058
1302030005010000003405      POLSONI                       GIUSEPPINA                          PLSGPP63C44G482K20403196306802820301000501PIE25111144058
1302030005010000003405      POLSONI                       GIUSEPPINA                          PLSGPP63C44G482K20403196306802820399000501PIE25111144058
130203000501SBRCST85R66C632CDI BENEDETTO                  PIETRO PAOLO                        DBNPRP89C13G273C11303198906801120301000501PIE25117118069
130203000501SBRCST85R66C632CDI BENEDETTO                  PIETRO PAOLO                        DBNPRP89C13G273C11303198906801120399000501PIE25117118069
13020300050142323           GALLETTA                      ANNA                                GLLNNA69P44F158C20409196906802220301000501PIE25115985058
13020300050142323           GALLETTA                      ANNA                                GLLNNA69P44F158C20409196906802220302000501PIE25115985058
13020300050142323           GALLETTA                      ANNA                                GLLNNA69P44F158C20409196906802220399000501PIE25115985058
1302030005010000004499      VERGARA ZACAGNINI             ANYELA EGDIMAR                      VRGNLG01T58Z614Z21812200106800320301000501PIE25116535069
1302030005010000004499      VERGARA ZACAGNINI             ANYELA EGDIMAR                      VRGNLG01T58Z614Z21812200106800320399000501PIE25116535069
13020300050111071           DI GIACINTO                   PIERO                               DGCPRI73S26G482W12611197306802820301000501PIE25117445058
13020300050111071           DI GIACINTO                   PIERO                               DGCPRI73S26G482W12611197306802820399000501PIE25117445058
130203000501PLMNNA60P63H501MMERZ                          BEATE MARIA                         MRZBMR59C62Z112H22203195906802320301000501PIE25117016058
130203000501PLMNNA60P63H501MMERZ                          BEATE MARIA                         MRZBMR59C62Z112H22203195906802320302000501PIE25117016058
130203000501PLMNNA60P63H501MMERZ                          BEATE MARIA                         MRZBMR59C62Z112H22203195906802320399000501PIE25117016058
13020300050110440           LUCIANI                       ELISA                               LCNLSE60B61F765L22102196006802520301000501PIE25112793069
13020300050110440           LUCIANI                       ELISA                               LCNLSE60B61F765L22102196006802520399000501PIE25112793069
130203000501CLBCCL86R55H501BSETA                          ELVIRA                              STELVR59S44G482X20411195906802420301000501PIE25113278005
130203000501CLBCCL86R55H501BSETA                          ELVIRA                              STELVR59S44G482X20411195906802420399000501PIE25113278005
130203000501VCCVCN67P58E379OFINOCCHI                      EMILIANO                            FNCMLN72D03H501J10304197206802820301000501PIE25111885058
130203000501VCCVCN67P58E379OFINOCCHI                      EMILIANO                            FNCMLN72D03H501J10304197206802820399000501PIE25111885058
130203000501VCCVCN67P58E379OFINOCCHI                      EMILIANO                            FNCMLN72D03H501J10304197206802820301000501PIE25111943003
130203000501VCCVCN67P58E379OFINOCCHI                      EMILIANO                            FNCMLN72D03H501J10304197206802820399000501PIE25111943003
130203000501DPLLSN82B50C632KDOTTORE                       UBALDO                              DTTBLD64M21G482L12108196406802820301000501PIE25116959069
130203000501DPLLSN82B50C632KDOTTORE                       UBALDO                              DTTBLD64M21G482L12108196406802820302000501PIE25116959069
130203000501DPLLSN82B50C632KDOTTORE                       UBALDO                              DTTBLD64M21G482L12108196406802820303000501PIE25116959069
130203000501DPLLSN82B50C632KDOTTORE                       UBALDO                              DTTBLD64M21G482L12108196406802820304000501PIE25116959069
130203000501DPLLSN82B50C632KDOTTORE                       UBALDO                              DTTBLD64M21G482L12108196406802820399000501PIE25116959069
130203000501686855          MARCELLI                      BENEDETTA                           MRCBDT40R54H769T21410194006802420301000501PIE25114920005
130203000501686855          MARCELLI                      BENEDETTA                           MRCBDT40R54H769T21410194006802420399000501PIE25114920005
130203000501680434          CANCELLI                      EMANUELA                            CNCMNL67H55G482V21506196706803020301000501PIE25115917058
130203000501680434          CANCELLI                      EMANUELA                            CNCMNL67H55G482V21506196706803020399000501PIE25115917058
130203000501DFLGPP56P15G479PDE BENEDICTIS                 MARIA  ASSUNTA                      DBNMSS57A63L219M22301195706802820301000501PIE25110567069
130203000501DFLGPP56P15G479PDE BENEDICTIS                 MARIA  ASSUNTA                      DBNMSS57A63L219M22301195706802820399000501PIE25110567069
130203000501CPZMGV86A55D643IDI PAOLO                      ANNA                                DPLNNA54E52E892C21205195406802820301000501PIE25112834069
130203000501CPZMGV86A55D643IDI PAOLO                      ANNA                                DPLNNA54E52E892C21205195406802820399000501PIE25112834069
130203000501MNCDNL81R69A485ZROCCHIO                       LIVIO                               RCCLVI55S21C632X12111195506902220201000501PIE25117950069
130203000501MNCDNL81R69A485ZROCCHIO                       LIVIO                               RCCLVI55S21C632X12111195506902220299000501PIE25117950069
130203000501SDGLDI61R67Z224OPISCIELLA                     PAOLA                               PSCPLA67R46F646D20610196706802420301000501PIE25116352058
130203000501SDGLDI61R67Z224OPISCIELLA                     PAOLA                               PSCPLA67R46F646D20610196706802420399000501PIE25116352058
130203000501SBTMNL78P63A515ISAVINI                        ANNADOMENICA                        SVNNDM54S54C750X21411195406801220301000501PIE25113459069
130203000501SBTMNL78P63A515ISAVINI                        ANNADOMENICA                        SVNNDM54S54C750X21411195406801220399000501PIE25113459069
1302030005011613            BIANCHI                       CLAUDIA                             BNCCLD87M68A488C22808198706802420301000501PIE25117101058
1302030005011613            BIANCHI                       CLAUDIA                             BNCCLD87M68A488C22808198706802420399000501PIE25117101058
1302030005010000004499      D'AMBROSIO                    TIZIANA                             DMBTZN43D47G555V20704194306804220301000501PIE25111158069
1302030005010000004499      D'AMBROSIO                    TIZIANA                             DMBTZN43D47G555V20704194306804220399000501PIE25111158069
130203000501DFNLNR86R43C632TCRISANTE                      NELLA PIA                           CRSNLP33L63G555A22307193306803020301000501PIE25112754069
130203000501DFNLNR86R43C632TCRISANTE                      NELLA PIA                           CRSNLP33L63G555A22307193306803020399000501PIE25112754069
130203000501CRSBMN62M43G555TDI MEO                        MARCO                               DMIMRC60L30Z401N13007196006802820301000501PIE25112777069
130203000501CRSBMN62M43G555TDI MEO                        MARCO                               DMIMRC60L30Z401N13007196006802820399000501PIE25112777069
1302030005010000002478      PREVITE                       ANTONINO                            PRVNNN45B02I084R10202194506802820301000501PIE25111530069
1302030005010000002478      PREVITE                       ANTONINO                            PRVNNN45B02I084R10202194506802820399000501PIE25111530069
130203000501PVNSLL84T60A488BPAGLIARO                      ERNESTO                             PGLRST42L06G482P10607194206802820301000501PIE25116851069
130203000501PVNSLL84T60A488BPAGLIARO                      ERNESTO                             PGLRST42L06G482P10607194206802820302000501PIE25116851069
130203000501PVNSLL84T60A488BPAGLIARO                      ERNESTO                             PGLRST42L06G482P10607194206802820399000501PIE25116851069
130203000501DRNVLR78S58E058UPAN                           HONGYI                              PNAHGY94B66Z210L22602199406804320301000501PIE25115900069
130203000501DRNVLR78S58E058UPAN                           HONGYI                              PNAHGY94B66Z210L22602199406804320302000501PIE25115900069
130203000501DRNVLR78S58E058UPAN                           HONGYI                              PNAHGY94B66Z210L22602199406804320399000501PIE25115900069
13020300050144114           TINA                          ERCOLE                              TNIRCL64T25A488H12512196406802820301000501PIE25115252069
13020300050144114           TINA                          ERCOLE                              TNIRCL64T25A488H12512196406802820399000501PIE25115252069
130203000501NTNRNN60A58G482VIACOBUCCI                     CAMILLO                             CBCCLL53P14I376Q11409195306803820301000501PIE25116316069
130203000501NTNRNN60A58G482VIACOBUCCI                     CAMILLO                             CBCCLL53P14I376Q11409195306803820399000501PIE25116316069
130203000501FSCWTR75D11G482RGUIZZARDI                     ROSA                                GZZRSO50S42G482M20211195006803020301000501PIE25111132069
130203000501FSCWTR75D11G482RGUIZZARDI                     ROSA                                GZZRSO50S42G482M20211195006803020399000501PIE25111132069
13020300050167990           PASTORI                       FRANCA                              PSTFNC53A50G482J21001195306802820301000501PIE25111579069
13020300050167990           PASTORI                       FRANCA                              PSTFNC53A50G482J21001195306802820399000501PIE25111579069
130203000501TZUDMN88L31A515UKUSHNIR                       SVITLANA                            KSHSTL65H70Z138Q23006196506802820301000501PIE25111480008
130203000501TZUDMN88L31A515UKUSHNIR                       SVITLANA                            KSHSTL65H70Z138Q23006196506802820399000501PIE25111480008
13020300050144216           ANTENUCCI                     ALISIA                              NTNLSA05S43G482J20311200506802820301000501PIE25117145058
13020300050144216           ANTENUCCI                     ALISIA                              NTNLSA05S43G482J20311200506802820399000501PIE25117145058
13020300050184951           NATALIZII                     ANTONIETTA BRILLANTI                NTLNNT58T41D763L20112195806802420301000501PIE25115297069
13020300050184951           NATALIZII                     ANTONIETTA BRILLANTI                NTLNNT58T41D763L20112195806802420399000501PIE25115297069
130203000501SLVPLA85M62G482DD'ALESSANDRO                  LUIGI                               DLSLGU46C05G760J10503194606802820301000501PIE25113975058
130203000501SLVPLA85M62G482DD'ALESSANDRO                  LUIGI                               DLSLGU46C05G760J10503194606802820399000501PIE25113975058
13020300050111071           AMOROSO                       GIUSEPPINA                          MRSGPP67C58G482U21803196706802820301000501PIE25111084069
13020300050111071           AMOROSO                       GIUSEPPINA                          MRSGPP67C58G482U21803196706802820399000501PIE25111084069
13020300050168008198        SPADACCINI                    BRUNO                               SPDBRN45P26E435P12609194506802420301000501PIE25116819058
13020300050168008198        SPADACCINI                    BRUNO                               SPDBRN45P26E435P12609194506802420399000501PIE25116819058
1302030005019249            GIGANTE                       ANDREA                              GGNNDR70H11G482L11106197006804120301000501PIE25114925005
1302030005019249            GIGANTE                       ANDREA                              GGNNDR70H11G482L11106197006804120399000501PIE25114925005
13020300050160131           IVANOVICI                     GABRIELA CORNELIA                   VNVGRL67C41Z129H20103196706804320301000501PIE25112747069
13020300050160131           IVANOVICI                     GABRIELA CORNELIA                   VNVGRL67C41Z129H20103196706804320399000501PIE25112747069
13020300050160131           CICCARELLI                    SILVYE                              CCCSVY73L61Z110R22107197306803320301000501PIE25113423069
13020300050160131           CICCARELLI                    SILVYE                              CCCSVY73L61Z110R22107197306803320399000501PIE25113423069
130203000501LRVVNT84A44G482ACIANCETTA                     ARGENTINA                           CNCRNT44A64C632D22401194406802820301000501PIE25115438058
130203000501LRVVNT84A44G482ACIANCETTA                     ARGENTINA                           CNCRNT44A64C632D22401194406802820399000501PIE25115438058
130203000501NFRGCR55E18B682HDI FRANCESCO                  LEO SILVIO                          DFRLLV87P02A488W10209198706801220301000501PIE25113294069
130203000501NFRGCR55E18B682HDI FRANCESCO                  LEO SILVIO                          DFRLLV87P02A488W10209198706801220399000501PIE25113294069
130203000501CLZSRA90L71C858MTROIANO                       LIDIA                               TRNLDI50A56C474I21601195006801120301000501PIE25116168005
130203000501CLZSRA90L71C858MTROIANO                       LIDIA                               TRNLDI50A56C474I21601195006801120399000501PIE25116168005
130203000501DMCGDU90D20G482MBELVEDERE                     LORELLA                             BLVLLL61B53C771X21302196106804620301000501PIE25113110036
130203000501DMCGDU90D20G482MBELVEDERE                     LORELLA                             BLVLLL61B53C771X21302196106804620399000501PIE25113110036
130203000501680428          CAVALLUCCI                    ADRIANO                             CVLDRN49S05G482V10511194906802820301000501PIE25113252069
130203000501680428          CAVALLUCCI                    ADRIANO                             CVLDRN49S05G482V10511194906802820399000501PIE25113252069
130203000501962             BASILISCO                     STEFANIA                            BSLSFN75B61G482S22102197506802820301000501PIE25112227058
130203000501962             BASILISCO                     STEFANIA                            BSLSFN75B61G482S22102197506802820399000501PIE25112227058
130203000501962             BASILISCO                     STEFANIA                            BSLSFN75B61G482S22102197506802820301000501PIE25112274003
130203000501962             BASILISCO                     STEFANIA                            BSLSFN75B61G482S22102197506802820399000501PIE25112274003
130203000501DNNLSN58T25L719UDI LUCA                       ROSALIA                             DLCRSL54P49I922O20909195406802820301000501PIE25113094069
130203000501DNNLSN58T25L719UDI LUCA                       ROSALIA                             DLCRSL54P49I922O20909195406802820399000501PIE25113094069
130203000501CMPRRT79E01F839RFORGIONE                      CARLO                               FRGCRL80A17E435D11701198006802420301000501PIE25117388069
130203000501CMPRRT79E01F839RFORGIONE                      CARLO                               FRGCRL80A17E435D11701198006802420399000501PIE25117388069
130203000501MRGSND77H41A345ECAPPELLI                      MARIA PAOLA                         CPPMPL45D46H819H20604194506802820301000501PIE25115937005
130203000501MRGSND77H41A345ECAPPELLI                      MARIA PAOLA                         CPPMPL45D46H819H20604194506802820399000501PIE25115937005
130203000501MRTLSN85C11L049WSHCHELKANOVA                  OLHA                                SHCLHO82H67Z138S22706198206802820301000501PIE25116828058
130203000501MRTLSN85C11L049WSHCHELKANOVA                  OLHA                                SHCLHO82H67Z138S22706198206802820399000501PIE25116828058
130203000501RDLPFC71R07G482MDI BERARDINO                  DONATO                              DBRDNT37M07B681B10708193706802420301000501PIE25115592005
130203000501RDLPFC71R07G482MDI BERARDINO                  DONATO                              DBRDNT37M07B681B10708193706802420302000501PIE25115592005
130203000501RDLPFC71R07G482MDI BERARDINO                  DONATO                              DBRDNT37M07B681B10708193706802420399000501PIE25115592005
13020300050168043053        FORCELLA                      CARMINA                             FRCCMN53T64E691L22412195306802420301000501PIE25115159069
13020300050168043053        FORCELLA                      CARMINA                             FRCCMN53T64E691L22412195306802420399000501PIE25115159069
130203000501286             ANTONIONI                     STEFANO                             NTNSFN61M14D488E11408196106804120301000501PIE25117802058
130203000501286             ANTONIONI                     STEFANO                             NTNSFN61M14D488E11408196106804120399000501PIE25117802058
130203000501DRLZRR78H55G482KTESTINI                       BIAGIO                              TSTBGI67A19D643O11901196706802820301000501PIE25117829058
130203000501DRLZRR78H55G482KTESTINI                       BIAGIO                              TSTBGI67A19D643O11901196706802820399000501PIE25117829058
13020300050168 020350       DELL'ORSO                     RAFFAELE                            DLLRFL57A09D501R10901195706801520301000501PIE25110738036
13020300050168 020350       DELL'ORSO                     RAFFAELE                            DLLRFL57A09D501R10901195706801520399000501PIE25110738036
13020300050168044125        ZAZZARA                       MARIA                               ZZZMRA55H61G482E22106195506804120301000501PIE25104623069
13020300050168044125        ZAZZARA                       MARIA                               ZZZMRA55H61G482E22106195506804120302000501PIE25104623069
13020300050168044125        ZAZZARA                       MARIA                               ZZZMRA55H61G482E22106195506804120399000501PIE25104623069
130203000501RSNMRA63H15E691NPARLIONE                      MANUELA                             PRLMNL73D41E691W20104197306802120301000501PIE25115924069
130203000501RSNMRA63H15E691NPARLIONE                      MANUELA                             PRLMNL73D41E691W20104197306802120399000501PIE25115924069
130203000501CLMSRA92C55G482EMARRONE                       GIANCARLO                           MRRGCR58R29G438E12910195806802420301000501PIE25115553069
130203000501CLMSRA92C55G482EMARRONE                       GIANCARLO                           MRRGCR58R29G438E12910195806802420399000501PIE25115553069
130203000501DDNSNO61P58A271HDI SANTO                      STEFANO                             DSNSFN63T18G482N11812196306804120301000501PIE25116742058
130203000501DDNSNO61P58A271HDI SANTO                      STEFANO                             DSNSFN63T18G482N11812196306804120399000501PIE25116742058
130203000501SVNNNL76M41G482ORONCONE                       LUIGI                               RNCLGU38T29A885I12912193806801220301000501PIE25112593005
130203000501SVNNNL76M41G482ORONCONE                       LUIGI                               RNCLGU38T29A885I12912193806801220302000501PIE25112593005
130203000501SVNNNL76M41G482ORONCONE                       LUIGI                               RNCLGU38T29A885I12912193806801220399000501PIE25112593005
1302030005010000003405      LUPINETTI                     VITO                                LPNVTI70H26Z133M12606197006801820301000501PIE25113214069
1302030005010000003405      LUPINETTI                     VITO                                LPNVTI70H26Z133M12606197006801820399000501PIE25113214069
130203000501ZCCMRC84A11G482BMELCHIORRE                    CONCETTA                            MLCCCT51A70D996B23001195106802820301000501PIE25115565058
130203000501ZCCMRC84A11G482BMELCHIORRE                    CONCETTA                            MLCCCT51A70D996B23001195106802820302000501PIE25115565058
130203000501ZCCMRC84A11G482BMELCHIORRE                    CONCETTA                            MLCCCT51A70D996B23001195106802820399000501PIE25115565058
130203000501TRNMGR56L57L736ECANDELORO                     MARIA                               CNDMRA50B55G482A21502195006804120301000501PIE25113832036
130203000501TRNMGR56L57L736ECANDELORO                     MARIA                               CNDMRA50B55G482A21502195006804120399000501PIE25113832036
1302030005011613            CIUBOTARU                     ELENA                               CBTLNE56B45Z129J20502195606802420301000501PIE25110988005
1302030005011613            CIUBOTARU                     ELENA                               CBTLNE56B45Z129J20502195606802420399000501PIE25110988005
13020300050163325           SANTOCHI                      NICOLETTA                           SNTNLT70M65G702B22508197006802820301000501PIE25110520069
13020300050163325           SANTOCHI                      NICOLETTA                           SNTNLT70M65G702B22508197006802820399000501PIE25110520069
13020300050147352           ALBERTONI                     ORESTE                              LBRRST70A16G482T11601197006802420301000501PIE25112646069
13020300050147352           ALBERTONI                     ORESTE                              LBRRST70A16G482T11601197006802420399000501PIE25112646069
130203000501DNTPNT93P02Z401YSUFFRED                       LORIS                               SFFLRS87P14I348O11409198706800220301000501PIE25116560069
130203000501DNTPNT93P02Z401YSUFFRED                       LORIS                               SFFLRS87P14I348O11409198706800220399000501PIE25116560069
1302030005019249            CHIAVAROLI                    SILVANA                             CHVSVN47B66F765L22602194706804120301000501PIE25117797005
1302030005019249            CHIAVAROLI                    SILVANA                             CHVSVN47B66F765L22602194706804120399000501PIE25117797005
130203000501SGLDNT60L21L049STROIANO                       PIETRO                              TRNPTR65R23F631B12310196506802420301000501PIE25116740058
130203000501SGLDNT60L21L049STROIANO                       PIETRO                              TRNPTR65R23F631B12310196506802420399000501PIE25116740058
130203000501680455          FUSELLA                       BRUNO                               FSLBRN64P09Z614U10909196406804120301000501PIE25110630069
130203000501680455          FUSELLA                       BRUNO                               FSLBRN64P09Z614U10909196406804120399000501PIE25110630069
130203000501CNTMRT63L25H501YSARR                          MAODO                               SRRMDA58E06Z343O10605195806802820301000501PIE25117078069
130203000501CNTMRT63L25H501YSARR                          MAODO                               SRRMDA58E06Z343O10605195806802820399000501PIE25117078069
130203000501DRCCST91T18G482QDI LORITO                     GABRIELLA                           DLRGRL56E57F646K21705195606802420301000501PIE25110991005
130203000501DRCCST91T18G482QDI LORITO                     GABRIELLA                           DLRGRL56E57F646K21705195606802420399000501PIE25110991005
13020300050168040576        BACCARO                       BENEDETTA                           BCCBDT70B56B519D21602197006802420301000501PIE25111367008
13020300050168040576        BACCARO                       BENEDETTA                           BCCBDT70B56B519D21602197006802420399000501PIE25111367008
13020300050168040576        BACCARO                       BENEDETTA                           BCCBDT70B56B519D21602197006802420301000501PIE25111549069
13020300050168040576        BACCARO                       BENEDETTA                           BCCBDT70B56B519D21602197006802420399000501PIE25111549069
130203000501LVRRMI64B56G482NCIUREA                        VICTORIA                            CRIVTR67R46Z129I20610196706802420301000501PIE25112847069
130203000501LVRRMI64B56G482NCIUREA                        VICTORIA                            CRIVTR67R46Z129I20610196706802420399000501PIE25112847069
130203000501DRLZRR78H55G482KCICALO'                       RITA ANNA MARIA                     CCLRNN57R71G482U23110195706802820301000501PIE25111498069
130203000501DRLZRR78H55G482KCICALO'                       RITA ANNA MARIA                     CCLRNN57R71G482U23110195706802820399000501PIE25111498069
130203000501DMCGDU90D20G482MDI FEDERICO                   ANNAMARIA                           DFDNMR49E50G438H21005194906802120301000501PIE25113433069
130203000501DMCGDU90D20G482MDI FEDERICO                   ANNAMARIA                           DFDNMR49E50G438H21005194906802120399000501PIE25113433069
13020300050169047170        PIERGALLINI                   MAURO                               PRGMRA61T20C853R12012196106801520301000501PIE25111531005
13020300050169047170        PIERGALLINI                   MAURO                               PRGMRA61T20C853R12012196106801520302000501PIE25111531005
13020300050169047170        PIERGALLINI                   MAURO                               PRGMRA61T20C853R12012196106801520399000501PIE25111531005
1302030005016100-9          DI DONATO                     LIVIO                               DDNLVI66P12D201T11209196606801720301000501PIE25116335069
1302030005016100-9          DI DONATO                     LIVIO                               DDNLVI66P12D201T11209196606801720399000501PIE25116335069
13020300050168020442        IEZZI                         SANTINA                             ZZISTN63R47G482F20710196306804120301000501PIE25113239005
13020300050168020442        IEZZI                         SANTINA                             ZZISTN63R47G482F20710196306804120399000501PIE25113239005
13020300050168 04253 8      ALIBERTI                      FRANCESCO                           LBRFNC48R26F839A12610194806802420301000501PIE25117283058
13020300050168 04253 8      ALIBERTI                      FRANCESCO                           LBRFNC48R26F839A12610194806802420302000501PIE25117283058
13020300050168 04253 8      ALIBERTI                      FRANCESCO                           LBRFNC48R26F839A12610194806802420399000501PIE25117283058
13020300050168 04253 8      ALIBERTI                      FRANCESCO                           LBRFNC48R26F839A12610194806802420301000501PIE25117300003
13020300050168 04253 8      ALIBERTI                      FRANCESCO                           LBRFNC48R26F839A12610194806802420399000501PIE25117300003
130203000501974             D'ALESSANDRO                  ETTORE                              DLSTTR59B18G482U11802195906802820301000501PIE25113029008
130203000501974             D'ALESSANDRO                  ETTORE                              DLSTTR59B18G482U11802195906802820302000501PIE25113029008
130203000501974             D'ALESSANDRO                  ETTORE                              DLSTTR59B18G482U11802195906802820399000501PIE25113029008
13020300050168045094        VIOLA                         ANTONIO                             VLINTN57L27F839P12707195706802420301000501PIE25117789005
13020300050168045094        VIOLA                         ANTONIO                             VLINTN57L27F839P12707195706802420399000501PIE25117789005
130203000501DLSGPP64S10A669ZGABRIELE                      GRAZIANO                            GBRGZN53L02C750M10207195306801220301000501PIE25113465005
130203000501DLSGPP64S10A669ZGABRIELE                      GRAZIANO                            GBRGZN53L02C750M10207195306801220302000501PIE25113465005
130203000501DLSGPP64S10A669ZGABRIELE                      GRAZIANO                            GBRGZN53L02C750M10207195306801220399000501PIE25113465005
130203000501MNGNNZ58M01H224KCRISANTE                      PAOLA                               CRSPLA44H60C474N22006194406802820301000501PIE25115867069
130203000501MNGNNZ58M01H224KCRISANTE                      PAOLA                               CRSPLA44H60C474N22006194406802820399000501PIE25115867069
13020300050168-02145/6      PELUFFO                       FRANCESCO                           PLFFNC62H22E691T12206196206802120301000501PIE25114182069
13020300050168-02145/6      PELUFFO                       FRANCESCO                           PLFFNC62H22E691T12206196206802120399000501PIE25114182069
13020300050168044329        MASSASCUSA                    FRANCA                              MSSFNC58A68D690U22801195806802820301000501PIE25111770005
13020300050168044329        MASSASCUSA                    FRANCA                              MSSFNC58A68D690U22801195806802820399000501PIE25111770005
130203000501TRNMGR56L57L736ECHERCHI                       ANTONELLA                           CHRNNL59L69G482P22907195906802820301000501PIE25112753008
130203000501TRNMGR56L57L736ECHERCHI                       ANTONELLA                           CHRNNL59L69G482P22907195906802820399000501PIE25112753008
13020300050168047318        VOLPE                         MARIA                               VLPMRA59L50G482A21007195906802420301000501PIE25115149069
13020300050168047318        VOLPE                         MARIA                               VLPMRA59L50G482A21007195906802420399000501PIE25115149069
130203000501680455          D'ELEUTERIO                   VITTORIA                            DLTVTR43E68A692D22805194306804120301000501PIE25111537005
130203000501680455          D'ELEUTERIO                   VITTORIA                            DLTVTR43E68A692D22805194306804120399000501PIE25111537005
130203000501CPZMGV86A55D643INOBILIO                       GIULIANA                            NBLGLN68T46G482C20612196806802820301000501PIE25115499069
130203000501CPZMGV86A55D643INOBILIO                       GIULIANA                            NBLGLN68T46G482C20612196806802820399000501PIE25115499069
130203000501STPHDM66L51Z614KNAPPI                         LUCIA                               NPPLCU41A70E620L23001194106802820301000501PIE25113532069
130203000501STPHDM66L51Z614KNAPPI                         LUCIA                               NPPLCU41A70E620L23001194106802820399000501PIE25113532069
13020300050160724           DI RENZO                      MARIA                               DRNMRA48T65E892V22512194806802220301000501PIE25113056069
13020300050160724           DI RENZO                      MARIA                               DRNMRA48T65E892V22512194806802220399000501PIE25113056069
13020300050144216           CREATI                        SILVANA                             CRTSVN32R69L186Z22910193206802820301000501PIE25110876069
13020300050144216           CREATI                        SILVANA                             CRTSVN32R69L186Z22910193206802820399000501PIE25110876069
1302030005016000            MORELLO                       ANTONIETTA                          MRLNNT48D49C638X20904194806803020301000501PIE25111741005
1302030005016000            MORELLO                       ANTONIETTA                          MRLNNT48D49C638X20904194806803020302000501PIE25111741005
1302030005016000            MORELLO                       ANTONIETTA                          MRLNNT48D49C638X20904194806803020399000501PIE25111741005
13020300050168 04253 8      DI ROCCO                      BARBARA                             DRCBBR66A51H990I21101196606802420301000501PIE25112855069
13020300050168 04253 8      DI ROCCO                      BARBARA                             DRCBBR66A51H990I21101196606802420399000501PIE25112855069
130203000501TRVSVN57C46Z345TRACCIATTI                     ANGELA                              RCCNGL44S51C856V21111194406802820301000501PIE25117567005
130203000501TRVSVN57C46Z345TRACCIATTI                     ANGELA                              RCCNGL44S51C856V21111194406802820399000501PIE25117567005
130203000501CRCDNL86S20G482ZTROIANO                       VINCENZO                            TRNVCN45P02C474J10209194506802820301000501PIE25112622005
130203000501CRCDNL86S20G482ZTROIANO                       VINCENZO                            TRNVCN45P02C474J10209194506802820399000501PIE25112622005
130203000501GRNPRR86L17C632ISABATINI                      CARMELA CLARA                       SBTCML40D61G482E22104194006802820301000501PIE25113877069
130203000501GRNPRR86L17C632ISABATINI                      CARMELA CLARA                       SBTCML40D61G482E22104194006802820302000501PIE25113877069
130203000501GRNPRR86L17C632ISABATINI                      CARMELA CLARA                       SBTCML40D61G482E22104194006802820399000501PIE25113877069
130203000501VRDGTN87H01C034VDRAGUT                        FELICIA                             DRGFLC71B63Z129Z22302197106800420301000501PIE25110587069
130203000501VRDGTN87H01C034VDRAGUT                        FELICIA                             DRGFLC71B63Z129Z22302197106800420399000501PIE25110587069
130203000501684398          D'ALANNO                      GIULIANA                            DLNGLN66S51G438G21111196606801120301000501PIE25110608069
130203000501684398          D'ALANNO                      GIULIANA                            DLNGLN66S51G438G21111196606801120399000501PIE25110608069
13020300050168 045819       GIZZARELLI                    ANTONIETTA LUISA                    GZZNNT64M66E558G22608196406802020301000501PIE25113629069
13020300050168 045819       GIZZARELLI                    ANTONIETTA LUISA                    GZZNNT64M66E558G22608196406802020399000501PIE25113629069
13020300050168062092        IEZZI                         FRANCO                              ZZIFNC46B03L186U10302194606804220301000501PIE25117760005
13020300050168062092        IEZZI                         FRANCO                              ZZIFNC46B03L186U10302194606804220399000501PIE25117760005
130203000501DLSGPP64S10A669ZD'EUSEBIO                     SALVATORE                           DSBSVT40D09I741I10904194006801220301000501PIE25115042008
130203000501DLSGPP64S10A669ZD'EUSEBIO                     SALVATORE                           DSBSVT40D09I741I10904194006801220399000501PIE25115042008
130203000501DLSGPP64S10A669ZROMUALDI                      ANNA                                RMLNNA48P56G482V21609194806801220301000501PIE25115040008
130203000501DLSGPP64S10A669ZROMUALDI                      ANNA                                RMLNNA48P56G482V21609194806801220399000501PIE25115040008
130203000501DLSGPP64S10A669ZD'EUSEBIO                     FRANCESCA                           DSBFNC84R44A488C20410198406801220301000501PIE25115303008
130203000501DLSGPP64S10A669ZD'EUSEBIO                     FRANCESCA                           DSBFNC84R44A488C20410198406801220399000501PIE25115303008
130203000501SGLDNT60L21L049SMOLINA GUTIERREZ              AMALFI                              MLNMLF66A57Z604H21701196606802420301000501PIE25112198058
130203000501SGLDNT60L21L049SMOLINA GUTIERREZ              AMALFI                              MLNMLF66A57Z604H21701196606802420399000501PIE25112198058
130203000501LSUDTR64E10G482ADI GIACOMO                    FOSCA FLORA FAUSTA                  DGCFCF48E59D078L21905194806802420301000501PIE25110562069
130203000501LSUDTR64E10G482ADI GIACOMO                    FOSCA FLORA FAUSTA                  DGCFCF48E59D078L21905194806802420302000501PIE25110562069
130203000501LSUDTR64E10G482ADI GIACOMO                    FOSCA FLORA FAUSTA                  DGCFCF48E59D078L21905194806802420303000501PIE25110562069
130203000501LSUDTR64E10G482ADI GIACOMO                    FOSCA FLORA FAUSTA                  DGCFCF48E59D078L21905194806802420399000501PIE25110562069
13020300050184951           DI NINO                       ANNA MARIA                          DNNNMR59S60G438K22011195906802420301000501PIE25113498058
13020300050184951           DI NINO                       ANNA MARIA                          DNNNMR59S60G438K22011195906802420399000501PIE25113498058
13020300050167990           SCORRANO                      ALESSANDRO                          SCRLSN53E01G482H10105195306802820301000501PIE25111548069
13020300050167990           SCORRANO                      ALESSANDRO                          SCRLSN53E01G482H10105195306802820399000501PIE25111548069
1302030005010000004685      GIULIANI                      CAMILLO                             GLNCLL57E18G482K11805195706802820301000501PIE25115484008
1302030005010000004685      GIULIANI                      CAMILLO                             GLNCLL57E18G482K11805195706802820399000501PIE25115484008
1302030005010000004485      DAMIANI                       VINCENZO                            DMNVCN71D06G438Z10604197106801920301000501PIE25117080058
1302030005010000004485      DAMIANI                       VINCENZO                            DMNVCN71D06G438Z10604197106801920302000501PIE25117080058
1302030005010000004485      DAMIANI                       VINCENZO                            DMNVCN71D06G438Z10604197106801920399000501PIE25117080058
13020300050168046518        CORVAGLIA                     PATRIZIA                            CRVPRZ77A54G751R21401197706802520301000501PIE25114494069
13020300050168046518        CORVAGLIA                     PATRIZIA                            CRVPRZ77A54G751R21401197706802520399000501PIE25114494069
1302030005014569            PACE                          SABRINA                             PCASRN65L71Z133H23107196506802820301000501PIE25112456069
1302030005014569            PACE                          SABRINA                             PCASRN65L71Z133H23107196506802820399000501PIE25112456069
130203000501974             LEPORIERI                     VINCENZO                            LPRVCN64B11G482K11102196406802820301000501PIE25113476005
130203000501974             LEPORIERI                     VINCENZO                            LPRVCN64B11G482K11102196406802820399000501PIE25113476005
130203000501PNNLSE69T60G482GQUASIBENE                     ANTONIO                             QSBNTN73C12G482T11203197306802820301000501PIE25115550069
130203000501PNNLSE69T60G482GQUASIBENE                     ANTONIO                             QSBNTN73C12G482T11203197306802820399000501PIE25115550069
130203000501CRRPLA92M08G482HPROIETTO                      ANNA                                PRTNNA69L66Z700D22607196906802820301000501PIE25116551069
130203000501CRRPLA92M08G482HPROIETTO                      ANNA                                PRTNNA69L66Z700D22607196906802820399000501PIE25116551069
1302030005011613            IANNETTI                      AUGUSTA CROCE                       NNTGTC66E43B193X20305196606802420301000501PIE25117986058
1302030005011613            IANNETTI                      AUGUSTA CROCE                       NNTGTC66E43B193X20305196606802420302000501PIE25117986058
1302030005011613            IANNETTI                      AUGUSTA CROCE                       NNTGTC66E43B193X20305196606802420399000501PIE25117986058
1302030005011613            IANNETTI                      AUGUSTA CROCE                       NNTGTC66E43B193X20305196606802420301000501PIE25118006003
1302030005011613            IANNETTI                      AUGUSTA CROCE                       NNTGTC66E43B193X20305196606802420399000501PIE25118006003
130203000501CRSBMN62M43G555TFINOCCHIO                     REMO                                FNCRME42L23E892B12307194206802820301000501PIE25115843005
130203000501CRSBMN62M43G555TFINOCCHIO                     REMO                                FNCRME42L23E892B12307194206802820399000501PIE25115843005
1302030005016946508         GIARDINI                      GIUSEPPE                            GRDGPP69A21G878L12101196906803320301000501PIE25111100069
1302030005016946508         GIARDINI                      GIUSEPPE                            GRDGPP69A21G878L12101196906803320399000501PIE25111100069
13020300050169047170        TRIOZZI                       ENIO                                TRZNEI47P06G589K10609194706803120301000501PIE25115548005
13020300050169047170        TRIOZZI                       ENIO                                TRZNEI47P06G589K10609194706803120399000501PIE25115548005
130203000501682075          TORO                          DONATELLO                           TRODTL72P26G438Q12609197206801220301000501PIE25113612069
130203000501682075          TORO                          DONATELLO                           TRODTL72P26G438Q12609197206801220399000501PIE25113612069
130203000501CRSBMN62M43G555TRENZETTI                      CARLO                               RNZCRL41C26G482V12603194106802820301000501PIE25111189069
130203000501CRSBMN62M43G555TRENZETTI                      CARLO                               RNZCRL41C26G482V12603194106802820399000501PIE25111189069
130203000501SCCRSL60E54E691VCIARCELLUTI                   DILVA                               CRCDLV52D56C853A21604195206801520301000501PIE25115908005
130203000501SCCRSL60E54E691VCIARCELLUTI                   DILVA                               CRCDLV52D56C853A21604195206801520399000501PIE25115908005
130203000501DLPDBR91T43B985BD'ALIMONTE                    GIANCARLO                           DLMGCR68R06G482I10610196806803420301000501PIE25112437069
130203000501DLPDBR91T43B985BD'ALIMONTE                    GIANCARLO                           DLMGCR68R06G482I10610196806803420399000501PIE25112437069
130203000501740             MORELLI                       SIMONA                              MRLSMN74D66G482J22604197406802820301000501PIE25115048069
130203000501740             MORELLI                       SIMONA                              MRLSMN74D66G482J22604197406802820399000501PIE25115048069
1302030005011501            PACIFICO                      MARIA                               PCFMRA63B42G482P20202196306803020301000501PIE25112462069
1302030005011501            PACIFICO                      MARIA                               PCFMRA63B42G482P20202196306803020399000501PIE25112462069
130203000501FRNFMN68E49D643QD'ONOFRIO                     ROBERTO                             DNFRRT69L24G482O12407196906802820301000501PIE25113204058
130203000501FRNFMN68E49D643QD'ONOFRIO                     ROBERTO                             DNFRRT69L24G482O12407196906802820399000501PIE25113204058
130203000501SDGLDI61R67Z224OCIAPPARETTA                   EZIO                                CPPZEI64B17F646L11702196406802420301000501PIE25116820058
130203000501SDGLDI61R67Z224OCIAPPARETTA                   EZIO                                CPPZEI64B17F646L11702196406802420399000501PIE25116820058
13020300050168062092        DI BARTOLOMEO                 GIOVANNA                            DBRGNN54D45L263V20504195406804220301000501PIE25116328069
13020300050168062092        DI BARTOLOMEO                 GIOVANNA                            DBRGNN54D45L263V20504195406804220399000501PIE25116328069
130203000501DBTLCN64D25G482QCIAVATTELLA                   VINCENZO                            CVTVCN50D05D394K10504195006802420301000501PIE25112629069
130203000501DBTLCN64D25G482QCIAVATTELLA                   VINCENZO                            CVTVCN50D05D394K10504195006802420399000501PIE25112629069
130203000501LMBMTN87B45C632TDE SANTIS                     SIMONA                              DSNSMN78L64G482K22407197806802820301000501PIE25110522069
130203000501LMBMTN87B45C632TDE SANTIS                     SIMONA                              DSNSMN78L64G482K22407197806802820399000501PIE25110522069
1302030005010000004499      FERRI                         MARIA TERESA                        FRRMTR50C42F765T20203195006804220301000501PIE25111562069
1302030005010000004499      FERRI                         MARIA TERESA                        FRRMTR50C42F765T20203195006804220302000501PIE25111562069
1302030005010000004499      FERRI                         MARIA TERESA                        FRRMTR50C42F765T20203195006804220399000501PIE25111562069
13020300050168020522        ERMANO                        EMILIO                              RMNMLE59E17G438Q11705195906802120301000501PIE25115134069
13020300050168020522        ERMANO                        EMILIO                              RMNMLE59E17G438Q11705195906802120399000501PIE25115134069
130203000501974             DI SANTO                      MIRIAM                              DSNMRM59H58G482M21806195906802820301000501PIE25112224069
130203000501974             DI SANTO                      MIRIAM                              DSNMRM59H58G482M21806195906802820399000501PIE25112224069
130203000501RDCFNC54B28G482FZACCAGNINI                    MARCELLA                            ZCCMCL64M50I376I21008196406802920301000501PIE25116322069
130203000501RDCFNC54B28G482FZACCAGNINI                    MARCELLA                            ZCCMCL64M50I376I21008196406802920399000501PIE25116322069
1302030005011613            DE LUCA                       GABRIELE                            DLCGRL36S08G141Y10811193606802820301000501PIE25117097036
1302030005011613            DE LUCA                       GABRIELE                            DLCGRL36S08G141Y10811193606802820399000501PIE25117097036
13020300050144114           BASILICO                      IVANA                               BSLVNI46T66D763Y22612194606802820301000501PIE25113979069
13020300050144114           BASILICO                      IVANA                               BSLVNI46T66D763Y22612194606802820399000501PIE25113979069
13020300050168043155        D'ANGELO                      ILARIA                              DNGLRI80T65F839G22512198006802420301000501PIE25115401008
13020300050168043155        D'ANGELO                      ILARIA                              DNGLRI80T65F839G22512198006802420399000501PIE25115401008
130203000501CRSBMN62M43G555TGIUSTI                        MANUEL                              GSTMNL90L12L103J11207199006802820301000501PIE25117102058
130203000501CRSBMN62M43G555TGIUSTI                        MANUEL                              GSTMNL90L12L103J11207199006802820399000501PIE25117102058
130203000501DFLGRG85P55G482FMINCARELLI                    ROBERTO                             MNCRRT41A08G482I10801194106802820301000501PIE25113883005
130203000501DFLGRG85P55G482FMINCARELLI                    ROBERTO                             MNCRRT41A08G482I10801194106802820399000501PIE25113883005
130203000501728             PECA                          DANIELA                             PCEDNL61D57G482R21704196106802420301000501PIE25115695069
130203000501728             PECA                          DANIELA                             PCEDNL61D57G482R21704196106802420399000501PIE25115695069
1302030005010000002266      CASTELLI                      EUSANIO                             CSTSNE53H30C169P13006195306802420301000501PIE25116339069
1302030005010000002266      CASTELLI                      EUSANIO                             CSTSNE53H30C169P13006195306802420399000501PIE25116339069
130203000501CPZMGV86A55D643ISIMONE                        GRAZIA                              SMNGRZ53M43G482A20308195306802820301000501PIE25111534036
130203000501CPZMGV86A55D643ISIMONE                        GRAZIA                              SMNGRZ53M43G482A20308195306802820399000501PIE25111534036
130203000501352             VERROCCHIO                    ZEFFERINA                           VRRZFR52A50G482K21001195206802820301000501PIE25112869069
130203000501352             VERROCCHIO                    ZEFFERINA                           VRRZFR52A50G482K21001195206802820399000501PIE25112869069
130203000501STPHDM66L51Z614KANDREOLI                      SABRINA                             NDRSRN81M51E435M21108198106802820301000501PIE25111759058
130203000501STPHDM66L51Z614KANDREOLI                      SABRINA                             NDRSRN81M51E435M21108198106802820399000501PIE25111759058
130203000501DLPDBR91T43B985BDI PIERDOMENICO               ANNA                                DPRNNA55T44Z103K20412195506803420301000501PIE25113984058
130203000501DLPDBR91T43B985BDI PIERDOMENICO               ANNA                                DPRNNA55T44Z103K20412195506803420399000501PIE25113984058
130203000501352             DELL'OSA                      NELLO                               DLLNLL55D13G482H11304195506802820301000501PIE25117453058
130203000501352             DELL'OSA                      NELLO                               DLLNLL55D13G482H11304195506802820399000501PIE25117453058
130203000501MCRFRC89P66A515STRISI                         GIUSEPPINA                          TRSGPP49D42G482Z20204194906802820301000501PIE25117847058
