130203004401STRMNL82P21F158HTIMOTEO                       GIUSEPPINA ZENAIDE                  TMTGPP41H66G482K2260619410151463210120250044014734      
130203004401STRMNL82P21F158HTIMOTEO                       GIUSEPPINA ZENAIDE                  TMTGPP41H66G482K2260619410151463210220250044014734      
130203004401STRMNL82P21F158HTIMOTEO                       GIUSEPPINA ZENAIDE                  TMTGPP41H66G482K2260619410151463219920250044014734      
130203004401FLLNLN55S15F380TTADDEI                        PRIMA GIACINTA                      TDDPMG54S47G766B2071119540660492010120250044014729      
130203004401FLLNLN55S15F380TTADDEI                        PRIMA GIACINTA                      TDDPMG54S47G766B2071119540660492010220250044014729      
130203004401FLLNLN55S15F380TTADDEI                        PRIMA GIACINTA                      TDDPMG54S47G766B2071119540660492019920250044014729      
130203004401PZZFNC95R64I804HPAOLUCCI                      MARIA DONATA                        PLCMDN53T68E096F2281219530660492010120250044014732      
130203004401PZZFNC95R64I804HPAOLUCCI                      MARIA DONATA                        PLCMDN53T68E096F2281219530660492019920250044014732      
1302030044010000000000003100TAGLIAFERRI                   ROSITA                              TGLRST47E69A123D2290519470600031120120250044014730      
1302030044010000000000003100TAGLIAFERRI                   ROSITA                              TGLRST47E69A123D2290519470600031120220250044014730      
1302030044010000000000003100TAGLIAFERRI                   ROSITA                              TGLRST47E69A123D2290519470600031129920250044014730      
130203004401SPSFNC59A23L284BCALDARELLI                    GABRIELLA                           CLDGRL52C42D763G2020319520690502020120250044014785      
130203004401SPSFNC59A23L284BCALDARELLI                    GABRIELLA                           CLDGRL52C42D763G2020319520690502029920250044014785      
130203004401CNTRCN58T08C632QBONFITTO                      ANNA                                BNFNNA74R66E243Z2261019740690162020120250044014867      
130203004401CNTRCN58T08C632QBONFITTO                      ANNA                                BNFNNA74R66E243Z2261019740690162020220250044014867      
130203004401CNTRCN58T08C632QBONFITTO                      ANNA                                BNFNNA74R66E243Z2261019740690162020320250044014867      
130203004401CNTRCN58T08C632QBONFITTO                      ANNA                                BNFNNA74R66E243Z2261019740690162020420250044014867      
130203004401CNTRCN58T08C632QBONFITTO                      ANNA                                BNFNNA74R66E243Z2261019740690162029920250044014867      
130203004401DFBRFL67E62E243LPETRACCIA                     GIANNA                              PTRGNN57T55D763Y2151219570690352020120250044014868      
130203004401DFBRFL67E62E243LPETRACCIA                     GIANNA                              PTRGNN57T55D763Y2151219570690352020220250044014868      
130203004401DFBRFL67E62E243LPETRACCIA                     GIANNA                              PTRGNN57T55D763Y2151219570690352029920250044014868      
130203004401DFBRFL67E62E243LPETRACCIA                     GIANNA                              PTRGNN57T55D763Y2151219570690352020120250044014869      
130203004401DFBRFL67E62E243LPETRACCIA                     GIANNA                              PTRGNN57T55D763Y2151219570690352020220250044014869      
130203004401DFBRFL67E62E243LPETRACCIA                     GIANNA                              PTRGNN57T55D763Y2151219570690352029920250044014869      
130203004401dcrsrn76r57e243zFANTACUZZI                    EZIO                                FNTZEI53P22C632D1220919530690222020120250044014859      
130203004401dcrsrn76r57e243zFANTACUZZI                    EZIO                                FNTZEI53P22C632D1220919530690222029920250044014859      
130203004401                CATENA                        ERICA LAURA                         CTNRLR66M63G482G2230819660690352020120250044014739      
130203004401                CATENA                        ERICA LAURA                         CTNRLR66M63G482G2230819660690352020220250044014739      
130203004401                CATENA                        ERICA LAURA                         CTNRLR66M63G482G2230819660690352029920250044014739      
130203004401PLLMGV61E71C632TCACCIAGRANO                   ANNA                                CCCNNA46E67D690Q2270519460690812020120250044014849      
130203004401PLLMGV61E71C632TCACCIAGRANO                   ANNA                                CCCNNA46E67D690Q2270519460690812029920250044014849      
130203004401PLLMGV61E71C632TCACCIAGRANO                   ANNA                                CCCNNA46E67D690Q2270519460690812020120250044014850      
130203004401PLLMGV61E71C632TCACCIAGRANO                   ANNA                                CCCNNA46E67D690Q2270519460690812029920250044014850      
130203004401GLSBRN59C18D763KCUSATI                        VINCENZO                            CSTVCN69D25F839O1250419690690352020120250044015145      
130203004401GLSBRN59C18D763KCUSATI                        VINCENZO                            CSTVCN69D25F839O1250419690690352020220250044015145      
130203004401GLSBRN59C18D763KCUSATI                        VINCENZO                            CSTVCN69D25F839O1250419690690352029920250044015145      
130203004401DFBRFL67E62E243LBUONGIORNO                    ANTONIO                             BNGNTN64R06H501A1061019640690352020120250044014845      
130203004401DFBRFL67E62E243LBUONGIORNO                    ANTONIO                             BNGNTN64R06H501A1061019640690352020220250044014845      
130203004401DFBRFL67E62E243LBUONGIORNO                    ANTONIO                             BNGNTN64R06H501A1061019640690352020320250044014845      
130203004401DFBRFL67E62E243LBUONGIORNO                    ANTONIO                             BNGNTN64R06H501A1061019640690352029920250044014845      
130203004401GLLNCL57M18L194QBEJAN                         FLORICA                             BJNFRC72M43Z129K2030819720690902020120250044014773      
130203004401GLLNCL57M18L194QBEJAN                         FLORICA                             BJNFRC72M43Z129K2030819720690902020220250044014773      
130203004401GLLNCL57M18L194QBEJAN                         FLORICA                             BJNFRC72M43Z129K2030819720690902029920250044014773      
130203004401FRNGRL57E22C632GRUSSO                         DONATO                              RSSDNT44M22G482Q1220819440690812020120250044014759      
130203004401FRNGRL57E22C632GRUSSO                         DONATO                              RSSDNT44M22G482Q1220819440690812029920250044014759      
130203004401FRNGRL57E22C632GCIARALLO                      LINA                                CRLLNI44S61D690U2211119440690812020120250044014822      
130203004401FRNGRL57E22C632GCIARALLO                      LINA                                CRLLNI44S61D690U2211119440690812029920250044014822      
130203004401DDNDNT60H08G524XMORESCO                       CATIA                               MRSCTA65E68C632M2280519650690162020120250044014840      
130203004401DDNDNT60H08G524XMORESCO                       CATIA                               MRSCTA65E68C632M2280519650690162020220250044014840      
130203004401DDNDNT60H08G524XMORESCO                       CATIA                               MRSCTA65E68C632M2280519650690162029920250044014840      
130203004401MSSGNI57C69C632DCATALDO                       GABRIELE                            CTLGRL53P29F196U1290919530690502020120250044014769      
130203004401MSSGNI57C69C632DCATALDO                       GABRIELE                            CTLGRL53P29F196U1290919530690502029920250044014769      
130203004401PLLMGV61E71C632TDI FELICE                     GIUSEPPE                            DFLGPP49H05B294I1050619490690812020120250044014794      
130203004401PLLMGV61E71C632TDI FELICE                     GIUSEPPE                            DFLGPP49H05B294I1050619490690812020220250044014794      
130203004401PLLMGV61E71C632TDI FELICE                     GIUSEPPE                            DFLGPP49H05B294I1050619490690812029920250044014794      
130203004401drnndr91c11c632eSURUGIU                       PETREA                              SRGPTR55A22Z129I1220119550690812020120250044014858      
130203004401drnndr91c11c632eSURUGIU                       PETREA                              SRGPTR55A22Z129I1220119550690812029920250044014858      
130203004401ndrgpp85b17g786nDI CARLO                      RENZO                               DCRRNZ49H25G482B1250619490690352020120250044014878      
130203004401ndrgpp85b17g786nDI CARLO                      RENZO                               DCRRNZ49H25G482B1250619490690352020220250044014878      
130203004401ndrgpp85b17g786nDI CARLO                      RENZO                               DCRRNZ49H25G482B1250619490690352029920250044014878      
130203004401BLDVRT56E05D763KD'ELIA                        MARIA                               DLEMRA57T44F537C2041219570690352020120250044014750      
130203004401BLDVRT56E05D763KD'ELIA                        MARIA                               DLEMRA57T44F537C2041219570690352029920250044014750      
130203004401SNVRCC56B11G141LFORMICA                       ANNA MARIA                          FRMNMR49S41G141K2011119490690582020120250044014781      
130203004401SNVRCC56B11G141LFORMICA                       ANNA MARIA                          FRMNMR49S41G141K2011119490690582029920250044014781      
130203004401DFBRFL67E62E243LDI CAMPLI                     MARIA                               DCMMRA41E51G141D2110519410690352020120250044014802      
130203004401DFBRFL67E62E243LDI CAMPLI                     MARIA                               DCMMRA41E51G141D2110519410690352020220250044014802      
130203004401DFBRFL67E62E243LDI CAMPLI                     MARIA                               DCMMRA41E51G141D2110519410690352020320250044014802      
130203004401DFBRFL67E62E243LDI CAMPLI                     MARIA                               DCMMRA41E51G141D2110519410690352020420250044014802      
130203004401DFBRFL67E62E243LDI CAMPLI                     MARIA                               DCMMRA41E51G141D2110519410690352029920250044014802      
130203004401DFBRFL67E62E243LDE MARCO                      ANNA MARIA                          DMRNMR44M69D763K2290819440690352020120250044014855      
130203004401DFBRFL67E62E243LDE MARCO                      ANNA MARIA                          DMRNMR44M69D763K2290819440690352020220250044014855      
130203004401DFBRFL67E62E243LDE MARCO                      ANNA MARIA                          DMRNMR44M69D763K2290819440690352029920250044014855      
130203004401mpcnsi77l47a485uMORELLI                       OTTAVIA                             MRLTTV40D69L284N2290419400690942020120250044014848      
130203004401mpcnsi77l47a485uMORELLI                       OTTAVIA                             MRLTTV40D69L284N2290419400690942029920250044014848      
130203004401DRLRLA61E23C632ESTANZIALE                     GIUSEPPE                            STNGPP46M10C514F1100819460690352020120250044014820      
130203004401DRLRLA61E23C632ESTANZIALE                     GIUSEPPE                            STNGPP46M10C514F1100819460690352020220250044014820      
130203004401DRLRLA61E23C632ESTANZIALE                     GIUSEPPE                            STNGPP46M10C514F1100819460690352029920250044014820      
130203004401GLSBRN59C18D763KDI FABRIZIO                   GIOVANNI                            DFBGNN34C17D996D1170319340690352020120250044014844      
130203004401GLSBRN59C18D763KDI FABRIZIO                   GIOVANNI                            DFBGNN34C17D996D1170319340690352029920250044014844      
130203004401ndrgpp85b17g786nDRAGANI                       LEA                                 DRGLEA56D65G141K2250419560690352020120250044014798      
130203004401ndrgpp85b17g786nDRAGANI                       LEA                                 DRGLEA56D65G141K2250419560690352020220250044014798      
130203004401ndrgpp85b17g786nDRAGANI                       LEA                                 DRGLEA56D65G141K2250419560690352029920250044014798      
130203004401DFBRFL67E62E243LGIANNATTASIO                  CHIARA                              GNNCHR56T66E435L2261219560690352020120250044014843      
130203004401DFBRFL67E62E243LGIANNATTASIO                  CHIARA                              GNNCHR56T66E435L2261219560690352020220250044014843      
130203004401DFBRFL67E62E243LGIANNATTASIO                  CHIARA                              GNNCHR56T66E435L2261219560690352029920250044014843      
130203004401DFBRFL67E62E243LBUONGIORNO                    ANTONIO                             BNGNTN64R06H501A1061019640690352020120250044014963      
130203004401DFBRFL67E62E243LBUONGIORNO                    ANTONIO                             BNGNTN64R06H501A1061019640690352020220250044014963      
130203004401DFBRFL67E62E243LBUONGIORNO                    ANTONIO                             BNGNTN64R06H501A1061019640690352020320250044014963      
130203004401DFBRFL67E62E243LBUONGIORNO                    ANTONIO                             BNGNTN64R06H501A1061019640690352020420250044014963      
130203004401DFBRFL67E62E243LBUONGIORNO                    ANTONIO                             BNGNTN64R06H501A1061019640690352029920250044014963      
130203004401PTNCLD84A58C632URUCCI                         MARIA DOMENICA                      RCCMDM47T47A485X2071219470690352020120250044014883      
130203004401PTNCLD84A58C632URUCCI                         MARIA DOMENICA                      RCCMDM47T47A485X2071219470690352029920250044014883      
130203004401DFBRFL67E62E243LANGELUCCI                     ELENA                               NGLLNE45D54C632V2140419450690352020120250044014960      
130203004401DFBRFL67E62E243LANGELUCCI                     ELENA                               NGLLNE45D54C632V2140419450690352020220250044014960      
130203004401DFBRFL67E62E243LANGELUCCI                     ELENA                               NGLLNE45D54C632V2140419450690352029920250044014960      
130203004401GLLNCL57M18L194QDI PIETRO                     TOMMASO                             DPTTMS89H28E435E1280619890690902020120250044014985      
130203004401GLLNCL57M18L194QDI PIETRO                     TOMMASO                             DPTTMS89H28E435E1280619890690902029920250044014985      
130203004401CSTTMS56C13A398DCOSTANTINI                    ADELE                               CSTDLA48D50A398F2100419480690032020120250044014953      
130203004401CSTTMS56C13A398DCOSTANTINI                    ADELE                               CSTDLA48D50A398F2100419480690032029920250044014953      
130203004401MRNPLA64T68A080MDE SANTIS                     ROBERTA                             DSNRRT67S44Z103M2041119670690352020120250044014966      
130203004401MRNPLA64T68A080MDE SANTIS                     ROBERTA                             DSNRRT67S44Z103M2041119670690352029920250044014966      
130203004401DRBMRC55M05G482TROSSI                         ADELAIDE                            RSSDLD41M56L326B2160819410690222020120250044014988      
130203004401DRBMRC55M05G482TROSSI                         ADELAIDE                            RSSDLD41M56L326B2160819410690222029920250044014988      
130203004401RSNVNI59L45C632HD'AMARIO CERULLO              FEDERICO                            DMRFRC22B13G482H1130220220690352020120250044014989      
130203004401RSNVNI59L45C632HD'AMARIO CERULLO              FEDERICO                            DMRFRC22B13G482H1130220220690352029920250044014989      
130203004401PLLMGV61E71C632TCANALE                        DOMENICO ANTONIO                    CNLDNC67B25H562L1250219670690812020120250044014958      
130203004401PLLMGV61E71C632TCANALE                        DOMENICO ANTONIO                    CNLDNC67B25H562L1250219670690812029920250044014958      
130203004401DRIRTI60R53C632MMOLINO                        ANNA MARIA                          MLNNMR47P51F839N2110919470690352020120250044014926      
130203004401DRIRTI60R53C632MMOLINO                        ANNA MARIA                          MLNNMR47P51F839N2110919470690352029920250044014926      
130203004401CNTRCN58T08C632QCASTRIOTA                     ANGELA                              CSTNGL66R56D643Y2161019660690222020120250044015151      
130203004401CNTRCN58T08C632QCASTRIOTA                     ANGELA                              CSTNGL66R56D643Y2161019660690222020220250044015151      
130203004401CNTRCN58T08C632QCASTRIOTA                     ANGELA                              CSTNGL66R56D643Y2161019660690222020320250044015151      
130203004401CNTRCN58T08C632QCASTRIOTA                     ANGELA                              CSTNGL66R56D643Y2161019660690222029920250044015151      
130203004401PLLMGV61E71C632TDEDONATO                      RITA                                DDNRTI54E64I158M2240519540690812020120250044014946      
130203004401PLLMGV61E71C632TDEDONATO                      RITA                                DDNRTI54E64I158M2240519540690812029920250044014946      
130203004401tnlnmr55d45c632qCICCOLLITTO                   MAURIZIO                            CCCMRZ66H10D690V1100619660690222020120250044015028      
130203004401tnlnmr55d45c632qCICCOLLITTO                   MAURIZIO                            CCCMRZ66H10D690V1100619660690222029920250044015028      
130203004401CRLCHR85C57G482LIEZZI                         GIOVANNINO                          ZZIGNN41E14G499Y1140519410680282030120250044014800      
130203004401CRLCHR85C57G482LIEZZI                         GIOVANNINO                          ZZIGNN41E14G499Y1140519410680282039920250044014800      
130203004401SLVFMN56M65H425ATIBERI                        CARLA                               TBRCRL59R50G482E2101019590680282030120250044014823      
130203004401SLVFMN56M65H425ATIBERI                        CARLA                               TBRCRL59R50G482E2101019590680282039920250044014823      
130203004401DFNLNR86R43C632TD'AGOSTINO                    IDA                                 DGSDIA43L63F765N2230719430680302030120250044014813      
130203004401DFNLNR86R43C632TD'AGOSTINO                    IDA                                 DGSDIA43L63F765N2230719430680302039920250044014813      
130203004401DVDMNC64R58G482SDIODATI                       LUIGI                               DDTLGU37T01I922E1011219370680412030120250044014796      
130203004401DVDMNC64R58G482SDIODATI                       LUIGI                               DDTLGU37T01I922E1011219370680412030220250044014796      
130203004401DVDMNC64R58G482SDIODATI                       LUIGI                               DDTLGU37T01I922E1011219370680412039920250044014796      
130203004401mrgsnd77h41a345eSERIO                         LUCIA                               SRELCU43T53A662I2131219430680282030120250044014828      
130203004401mrgsnd77h41a345eSERIO                         LUCIA                               SRELCU43T53A662I2131219430680282030220250044014828      
130203004401mrgsnd77h41a345eSERIO                         LUCIA                               SRELCU43T53A662I2131219430680282039920250044014828      
130203004401zncndr86p15h501kASCENZO                       ANGELA                              SCNNGL48C59I376C2190319480680282030120250044014778      
130203004401zncndr86p15h501kASCENZO                       ANGELA                              SCNNGL48C59I376C2190319480680282030220250044014778      
130203004401zncndr86p15h501kASCENZO                       ANGELA                              SCNNGL48C59I376C2190319480680282039920250044014778      
130203004401TRNMGR56L57L736ECARDINELLI                    ANTONIETTA                          CRDNNT43M48Z326B2080819430680282030120250044014780      
130203004401TRNMGR56L57L736ECARDINELLI                    ANTONIETTA                          CRDNNT43M48Z326B2080819430680282030220250044014780      
130203004401TRNMGR56L57L736ECARDINELLI                    ANTONIETTA                          CRDNNT43M48Z326B2080819430680282030320250044014780      
130203004401TRNMGR56L57L736ECARDINELLI                    ANTONIETTA                          CRDNNT43M48Z326B2080819430680282039920250044014780      
130203004401DMRMCR58D68Z614ICAMPAGNA                      ADA                                 CMPDAA47D55G524R2150419470680282030120250044014786      
130203004401DMRMCR58D68Z614ICAMPAGNA                      ADA                                 CMPDAA47D55G524R2150419470680282039920250044014786      
130203004401vrdgtn87h01c034vGALASSI                       FLORIANA                            GLSFRN40S42C853X2021119400680152030120250044014815      
130203004401vrdgtn87h01c034vGALASSI                       FLORIANA                            GLSFRN40S42C853X2021119400680152030220250044014815      
130203004401vrdgtn87h01c034vGALASSI                       FLORIANA                            GLSFRN40S42C853X2021119400680152039920250044014815      
130203004401CRSMRZ82C49G482CTERRENZIO                     GABRIELLA                           TRRGRL54P43C474S2030919540680112030120250044014838      
130203004401CRSMRZ82C49G482CTERRENZIO                     GABRIELLA                           TRRGRL54P43C474S2030919540680112039920250044014838      
130203004401crrmhl58a66g482lPELACCIA                      NICOLA NUNZIO                       PLCNLN65P15G482K1150919650680382030120250044014865      
130203004401crrmhl58a66g482lPELACCIA                      NICOLA NUNZIO                       PLCNLN65P15G482K1150919650680382039920250044014865      
130203004401CRLCHR85C57G482LMATERA                        ANNALISA                            MTRNLS76A63G482P2230119760680282030120250044014866      
130203004401CRLCHR85C57G482LMATERA                        ANNALISA                            MTRNLS76A63G482P2230119760680282030220250044014866      
130203004401CRLCHR85C57G482LMATERA                        ANNALISA                            MTRNLS76A63G482P2230119760680282039920250044014866      
130203004401DFLGPP56P15G479PFERMO                         ROSALBA                             FRMRLB48A45G482D2050119480680282030120250044014832      
130203004401DFLGPP56P15G479PFERMO                         ROSALBA                             FRMRLB48A45G482D2050119480680282039920250044014832      
130203004401MSCPLA63C12G482NNATALE                        GIUSEPPE                            NTLGPP34T24F646M1241219340680282030120250044014870      
130203004401MSCPLA63C12G482NNATALE                        GIUSEPPE                            NTLGPP34T24F646M1241219340680282039920250044014870      
130203004401DFRLCU57T53B651TPIATTELLI                     LAMBERTO                            PTTLBR45A03A488S1030119450680282030120250044014871      
130203004401DFRLCU57T53B651TPIATTELLI                     LAMBERTO                            PTTLBR45A03A488S1030119450680282030220250044014871      
130203004401DFRLCU57T53B651TPIATTELLI                     LAMBERTO                            PTTLBR45A03A488S1030119450680282030320250044014871      
130203004401DFRLCU57T53B651TPIATTELLI                     LAMBERTO                            PTTLBR45A03A488S1030119450680282039920250044014871      
130203004401GRNLGU69D29G482YBRANCADORO                    BIANCA SECONDA                      BRNBCS26A68C083M2280119260680282030120250044014772      
130203004401GRNLGU69D29G482YBRANCADORO                    BIANCA SECONDA                      BRNBCS26A68C083M2280119260680282039920250044014772      
130203004401STLLSN72E25G482MDOMIZIO                       ISABELLA                            DMZSLL47E63G482L2230519470680282030120250044014797      
130203004401STLLSN72E25G482MDOMIZIO                       ISABELLA                            DMZSLL47E63G482L2230519470680282030220250044014797      
130203004401STLLSN72E25G482MDOMIZIO                       ISABELLA                            DMZSLL47E63G482L2230519470680282039920250044014797      
130203004401dmrfrn56c48z614uPAGLIONE                      ANTONIETTA                          PGLNNT55E70L224X2300519550680282030120250044014836      
130203004401dmrfrn56c48z614uPAGLIONE                      ANTONIETTA                          PGLNNT55E70L224X2300519550680282039920250044014836      
130203004401LEIFNC89B43L628KZOLESI                        ANNAMARIA                           ZLSNMR40L50D969I2100719400680282030120250044014803      
130203004401LEIFNC89B43L628KZOLESI                        ANNAMARIA                           ZLSNMR40L50D969I2100719400680282039920250044014803      
130203004401GNNRCC62A30D763XEVANGELISTA                   MAURIZIO                            VNGMRZ58E11E691M1110519580680242030120250044014847      
130203004401GNNRCC62A30D763XEVANGELISTA                   MAURIZIO                            VNGMRZ58E11E691M1110519580680242030220250044014847      
130203004401GNNRCC62A30D763XEVANGELISTA                   MAURIZIO                            VNGMRZ58E11E691M1110519580680242039920250044014847      
130203004401TRLNGL63C53A271RMACCARONE                     LORIS                               MCCLRS75P20C632L1200919750680282030120250044014738      
130203004401TRLNGL63C53A271RMACCARONE                     LORIS                               MCCLRS75P20C632L1200919750680282039920250044014738      
130203004401                AVINO                         MARIO ANTONIO                       VNAMNT46H06E435V1060619460680282030120250044014747      
130203004401                AVINO                         MARIO ANTONIO                       VNAMNT46H06E435V1060619460680282030220250044014747      
130203004401                AVINO                         MARIO ANTONIO                       VNAMNT46H06E435V1060619460680282030320250044014747      
130203004401                AVINO                         MARIO ANTONIO                       VNAMNT46H06E435V1060619460680282039920250044014747      
130203004401DDNMRC58B04C316DTATONETTI                     MARCELLO                            TTNMCL56P09C632T1090919560680152030120250044014864      
130203004401DDNMRC58B04C316DTATONETTI                     MARCELLO                            TTNMCL56P09C632T1090919560680152039920250044014864      
130203004401dlcrml59l24c449mFACCIOLINI                    MARIA PALMA                         FCCMPL47R45C316I2051019470680302030120250044014784      
130203004401dlcrml59l24c449mFACCIOLINI                    MARIA PALMA                         FCCMPL47R45C316I2051019470680302030220250044014784      
130203004401dlcrml59l24c449mFACCIOLINI                    MARIA PALMA                         FCCMPL47R45C316I2051019470680302030320250044014784      
130203004401dlcrml59l24c449mFACCIOLINI                    MARIA PALMA                         FCCMPL47R45C316I2051019470680302039920250044014784      
130203004401DRLZRR78H55G482KDI TECCO                      LUCIANO                             DTCLCN58T14G482D1141219580680282030120250044014825      
130203004401DRLZRR78H55G482KDI TECCO                      LUCIANO                             DTCLCN58T14G482D1141219580680282039920250044014825      
130203004401BRGDNC55E20E558YCAPPELLETTI                   MERCEDE                             CPPMCD49E71G482B2310519490680282030120250044014827      
130203004401BRGDNC55E20E558YCAPPELLETTI                   MERCEDE                             CPPMCD49E71G482B2310519490680282039920250044014827      
130203004401MSCPLA63C12G482NTONDO                         DONATO                              TNDDNT64P01G482W1010919640680282030120250044014807      
130203004401MSCPLA63C12G482NTONDO                         DONATO                              TNDDNT64P01G482W1010919640680282030220250044014807      
130203004401MSCPLA63C12G482NTONDO                         DONATO                              TNDDNT64P01G482W1010919640680282039920250044014807      
130203004401CMPSDR60E22B519ZCELSO                         ANNA LIA                            CLSNNL45A45G141K2050119450680282030120250044014841      
130203004401CMPSDR60E22B519ZCELSO                         ANNA LIA                            CLSNNL45A45G141K2050119450680282030220250044014841      
130203004401CMPSDR60E22B519ZCELSO                         ANNA LIA                            CLSNNL45A45G141K2050119450680282030320250044014841      
130203004401CMPSDR60E22B519ZCELSO                         ANNA LIA                            CLSNNL45A45G141K2050119450680282030420250044014841      
130203004401CMPSDR60E22B519ZCELSO                         ANNA LIA                            CLSNNL45A45G141K2050119450680282030520250044014841      
130203004401CMPSDR60E22B519ZCELSO                         ANNA LIA                            CLSNNL45A45G141K2050119450680282039920250044014841      
130203004401SCRGNN56A15C268XMASTRODICASA                  AMALIA                              MSTMLA56L58I376U2180719560680032030120250044014833      
130203004401SCRGNN56A15C268XMASTRODICASA                  AMALIA                              MSTMLA56L58I376U2180719560680032039920250044014833      
130203004401CRRPLA92M08G482HD'ONOFRIO                     AMELIA                              DNFMLA48A50G482X2100119480680282030120250044014818      
130203004401CRRPLA92M08G482HD'ONOFRIO                     AMELIA                              DNFMLA48A50G482X2100119480680282039920250044014818      
130203004401SCRGNN56A15C268XCICCHELLI                     LINO                                CCCLNI48S18I376H1181119480680032030120250044014830      
130203004401SCRGNN56A15C268XCICCHELLI                     LINO                                CCCLNI48S18I376H1181119480680032039920250044014830      
130203004401SPNNRC53M25G482RGRANDE                        CARMELA                             GRNCML52S69G482J2291119520680282030120250044014831      
130203004401SPNNRC53M25G482RGRANDE                        CARMELA                             GRNCML52S69G482J2291119520680282030220250044014831      
130203004401SPNNRC53M25G482RGRANDE                        CARMELA                             GRNCML52S69G482J2291119520680282039920250044014831      
130203004401SPNNRC53M25G482RDI FELICE                     ANTONIO                             DFLNTN49A24D592M1240119490680282030120250044014814      
130203004401SPNNRC53M25G482RDI FELICE                     ANTONIO                             DFLNTN49A24D592M1240119490680282030220250044014814      
130203004401SPNNRC53M25G482RDI FELICE                     ANTONIO                             DFLNTN49A24D592M1240119490680282039920250044014814      
130203004401TSTMGR79P58B519XLARDO                         ENZA MIRANDA ANTONIE                LRDNMR44D51C632W2110419440680282030120250044014788      
130203004401TSTMGR79P58B519XLARDO                         ENZA MIRANDA ANTONIE                LRDNMR44D51C632W2110419440680282030220250044014788      
130203004401TSTMGR79P58B519XLARDO                         ENZA MIRANDA ANTONIE                LRDNMR44D51C632W2110419440680282039920250044014788      
130203004401zncndr86p15h501kBASILE                        REMO                                BSLRME47C26G482X1260319470680282030120250044014854      
130203004401zncndr86p15h501kBASILE                        REMO                                BSLRME47C26G482X1260319470680282039920250044014854      
130203004401TRLNGL63C53A271RTENISI                        LUCIA                               TNSLCU47A51D763A2110119470680282030120250044014809      
130203004401TRLNGL63C53A271RTENISI                        LUCIA                               TNSLCU47A51D763A2110119470680282030220250044014809      
130203004401TRLNGL63C53A271RTENISI                        LUCIA                               TNSLCU47A51D763A2110119470680282039920250044014809      
130203004401rspnna73c69g482mSCORDELLA                     MAURIZIO                            SCRMRZ56R22C632W1221019560680282030120250044014856      
130203004401rspnna73c69g482mSCORDELLA                     MAURIZIO                            SCRMRZ56R22C632W1221019560680282039920250044014856      
130203004401DFLGPP56P15G479PDIODATI                       GIOVANNA                            DDTGNN57T58G141B2181219570680282030120250044014795      
130203004401DFLGPP56P15G479PDIODATI                       GIOVANNA                            DDTGNN57T58G141B2181219570680282039920250044014795      
130203004401prvcst60e04g482uGUARNIERI                     FRANCA                              GRNFNC40M46G482X2060819400680282030120250044014805      
130203004401prvcst60e04g482uGUARNIERI                     FRANCA                              GRNFNC40M46G482X2060819400680282030220250044014805      
130203004401prvcst60e04g482uGUARNIERI                     FRANCA                              GRNFNC40M46G482X2060819400680282039920250044014805      
130203004401CCRTTL55M08D472ICYTRON                        MUNI RENATO                         CYTMRN50P12F585H1120919500680282030120250044014756      
130203004401CCRTTL55M08D472ICYTRON                        MUNI RENATO                         CYTMRN50P12F585H1120919500680282030220250044014756      
130203004401CCRTTL55M08D472ICYTRON                        MUNI RENATO                         CYTMRN50P12F585H1120919500680282030320250044014756      
130203004401CCRTTL55M08D472ICYTRON                        MUNI RENATO                         CYTMRN50P12F585H1120919500680282030420250044014756      
130203004401CCRTTL55M08D472ICYTRON                        MUNI RENATO                         CYTMRN50P12F585H1120919500680282039920250044014756      
130203004401FLSZEI66T08A345ACOSTANTINI                    GIULIANO                            CSTGLN53C26G438F1260319530680102030120250044014873      
130203004401FLSZEI66T08A345ACOSTANTINI                    GIULIANO                            CSTGLN53C26G438F1260319530680102039920250044014873      
130203004401LRVVNT84A44G482APAGLIARO                      DOMENICO                            PGLDNC56P20G482N1200919560680282030120250044014874      
130203004401LRVVNT84A44G482APAGLIARO                      DOMENICO                            PGLDNC56P20G482N1200919560680282039920250044014874      
130203004401nglfrc85m16c632yCIROLI                        CARMINE                             CRLCMN37L16I121Z1160719370680282030120250044014758      
130203004401nglfrc85m16c632yCIROLI                        CARMINE                             CRLCMN37L16I121Z1160719370680282039920250044014758      
130203004401crcdnl86s20g482zD'AGOSTINO                    GIANNA                              DGSGNN47D68I922S2280419470680282030120250044014757      
130203004401crcdnl86s20g482zD'AGOSTINO                    GIANNA                              DGSGNN47D68I922S2280419470680282039920250044014757      
130203004401crrmhl58a66g482lCERASOLI                      DINO                                CRSDNI79M29G482E1290819790680152030120250044014875      
130203004401crrmhl58a66g482lCERASOLI                      DINO                                CRSDNI79M29G482E1290819790680152039920250044014875      
130203004401CCRTTL55M08D472ISCARFAGNA                     NORINA                              SCRNRN45S56D501O2161119450680282030120250044014876      
130203004401CCRTTL55M08D472ISCARFAGNA                     NORINA                              SCRNRN45S56D501O2161119450680282039920250044014876      
130203004401CRLGDU60C14G482ND'AMORE                       NICOLA                              DMRNCL49A03B916Q1030119490680282030120250044014790      
130203004401CRLGDU60C14G482ND'AMORE                       NICOLA                              DMRNCL49A03B916Q1030119490680282039920250044014790      
130203004401SBSRCC66M20G482PANGELINI                      MIRKO                               NGLMRK73D07G482C1070419730680282030120250044014816      
130203004401SBSRCC66M20G482PANGELINI                      MIRKO                               NGLMRK73D07G482C1070419730680282039920250044014816      
130203004401SBSRCC66M20G482PANGELINI                      MIRKO                               NGLMRK73D07G482C1070419730680282030120250044014817      
130203004401SBSRCC66M20G482PANGELINI                      MIRKO                               NGLMRK73D07G482C1070419730680282039920250044014817      
130203004401DNCSFN90E12A488LCAMPILII                      ROSSANA                             CMPRSN54R62G555F2221019540680302030120250044014821      
130203004401DNCSFN90E12A488LCAMPILII                      ROSSANA                             CMPRSN54R62G555F2221019540680302039920250044014821      
130203004401VCCVCN67P58E379ORANIERI                       PAOLA                               RNRPLA46A42G482X2020119460680282030120250044014851      
130203004401VCCVCN67P58E379ORANIERI                       PAOLA                               RNRPLA46A42G482X2020119460680282039920250044014851      
130203004401PTRDNC90S30G438ZGIUSTI                        MARIA BERNARDINA                    GSTMBR47D54C632I2140419470680282030120250044014804      
130203004401PTRDNC90S30G438ZGIUSTI                        MARIA BERNARDINA                    GSTMBR47D54C632I2140419470680282039920250044014804      
130203004401GGLMNL62D65G482JSALVATORE                     DYLAN ASHLEY                        SLVDLN94C25A390L1250319940680282030120250044014877      
130203004401GGLMNL62D65G482JSALVATORE                     DYLAN ASHLEY                        SLVDLN94C25A390L1250319940680282030220250044014877      
130203004401GGLMNL62D65G482JSALVATORE                     DYLAN ASHLEY                        SLVDLN94C25A390L1250319940680282039920250044014877      
130203004401BLSRSL68C52I072SDI MECO                       ANNA IDA                            DMCNND42A48F908K2080119420680412030120250044015149      
130203004401BLSRSL68C52I072SDI MECO                       ANNA IDA                            DMCNND42A48F908K2080119420680412030220250044015149      
130203004401BLSRSL68C52I072SDI MECO                       ANNA IDA                            DMCNND42A48F908K2080119420680412039920250044015149      
130203004401DBSMRA65C61E558ID'ALFONSO                     SILVANA                             DLFSVN56S41E558S2011119560680202030120250044014872      
130203004401DBSMRA65C61E558ID'ALFONSO                     SILVANA                             DLFSVN56S41E558S2011119560680202030220250044014872      
130203004401DBSMRA65C61E558ID'ALFONSO                     SILVANA                             DLFSVN56S41E558S2011119560680202039920250044014872      
130203004401dfrfnc54d13g482dCARDARELLA                    LINA                                CRDLNI40A54G482Q2140119400680282030120250044014779      
130203004401dfrfnc54d13g482dCARDARELLA                    LINA                                CRDLNI40A54G482Q2140119400680282039920250044014779      
130203004401MRLCHR88C54C632QPAPILE                        GIUSEPPE                            PPLGPP52L11A120R1110719520680032030120250044014842      
130203004401MRLCHR88C54C632QPAPILE                        GIUSEPPE                            PPLGPP52L11A120R1110719520680032039920250044014842      
130203004401QRNFBN74H61F839XDE BERARDINIS                 SARA                                DBRSRA74P62G482B2220919740680242030120250044014774      
130203004401QRNFBN74H61F839XDE BERARDINIS                 SARA                                DBRSRA74P62G482B2220919740680242039920250044014774      
130203004401CRLCHR85C57G482LMAMMARELLA                    DIANA                               MMMDNI45T55G482X2151219450680282030120250044014766      
130203004401CRLCHR85C57G482LMAMMARELLA                    DIANA                               MMMDNI45T55G482X2151219450680282039920250044014766      
130203004401zccmrc84a11g482bCASERTA                       ANNA                                CSRNNA51B60G482J2200219510680282030120250044014829      
130203004401zccmrc84a11g482bCASERTA                       ANNA                                CSRNNA51B60G482J2200219510680282039920250044014829      
130203004401CRSBMN62M43G555TVOLPICELLA                    LEONELLA                            VLPLLL60B66I922S2260219600680282030120250044014764      
130203004401CRSBMN62M43G555TVOLPICELLA                    LEONELLA                            VLPLLL60B66I922S2260219600680282030220250044014764      
130203004401CRSBMN62M43G555TVOLPICELLA                    LEONELLA                            VLPLLL60B66I922S2260219600680282039920250044014764      
130203004401TRLNGL63C53A271RRENZETTI                      MARIO                               RNZMRA46L13G482P1130719460680282030120250044014791      
130203004401TRLNGL63C53A271RRENZETTI                      MARIO                               RNZMRA46L13G482P1130719460680282030220250044014791      
130203004401TRLNGL63C53A271RRENZETTI                      MARIO                               RNZMRA46L13G482P1130719460680282030320250044014791      
130203004401TRLNGL63C53A271RRENZETTI                      MARIO                               RNZMRA46L13G482P1130719460680282030420250044014791      
130203004401TRLNGL63C53A271RRENZETTI                      MARIO                               RNZMRA46L13G482P1130719460680282039920250044014791      
130203004401TRLNGL63C53A271RRENZETTI                      MARIO                               RNZMRA46L13G482P1130719460680282030120250044014792      
130203004401TRLNGL63C53A271RRENZETTI                      MARIO                               RNZMRA46L13G482P1130719460680282039920250044014792      
130203004401DNGMRN53C08G482GARGENTINI                     OTELLO                              RGNTLL40H09G482N1090619400680282030120250044015147      
130203004401DNGMRN53C08G482GARGENTINI                     OTELLO                              RGNTLL40H09G482N1090619400680282030220250044015147      
130203004401DNGMRN53C08G482GARGENTINI                     OTELLO                              RGNTLL40H09G482N1090619400680282030320250044015147      
130203004401DNGMRN53C08G482GARGENTINI                     OTELLO                              RGNTLL40H09G482N1090619400680282030420250044015147      
130203004401DNGMRN53C08G482GARGENTINI                     OTELLO                              RGNTLL40H09G482N1090619400680282039920250044015147      
130203004401DNGMRN53C08G482GARGENTINI                     OTELLO                              RGNTLL40H09G482N1090619400680282030120250044015148      
130203004401DNGMRN53C08G482GARGENTINI                     OTELLO                              RGNTLL40H09G482N1090619400680282030220250044015148      
130203004401DNGMRN53C08G482GARGENTINI                     OTELLO                              RGNTLL40H09G482N1090619400680282039920250044015148      
130203004401DRLZRR78H55G482KMARTINELLI                    MARINELLA                           MRTMNL53R55L113X2151019530680282030120250044014810      
130203004401DRLZRR78H55G482KMARTINELLI                    MARINELLA                           MRTMNL53R55L113X2151019530680282039920250044014810      
130203004401PZZGPR83H12A783YMASSIMI                       MARIANNA                            MSSMNN75T58G482Z2181219750680282030120250044014808      
130203004401PZZGPR83H12A783YMASSIMI                       MARIANNA                            MSSMNN75T58G482Z2181219750680282039920250044014808      
130203004401MSCPLA63C12G482NANSALONE                      MARIA CONCETTA                      NSLMCN51T48L113M2081219510680282030120250044014775      
130203004401MSCPLA63C12G482NANSALONE                      MARIA CONCETTA                      NSLMCN51T48L113M2081219510680282030220250044014775      
130203004401MSCPLA63C12G482NANSALONE                      MARIA CONCETTA                      NSLMCN51T48L113M2081219510680282030320250044014775      
130203004401MSCPLA63C12G482NANSALONE                      MARIA CONCETTA                      NSLMCN51T48L113M2081219510680282030420250044014775      
130203004401MSCPLA63C12G482NANSALONE                      MARIA CONCETTA                      NSLMCN51T48L113M2081219510680282039920250044014775      
130203004401DNNLSN58T25L719UCIABURRO                      FABRIZIO                            CBRFRZ78H11G482T1110619780680282030120250044014760      
130203004401DNNLSN58T25L719UCIABURRO                      FABRIZIO                            CBRFRZ78H11G482T1110619780680282039920250044014760      
130203004401KDTLML73H48Z154CGALDO                         ANTONIO                             GLDNTN49S08A455T1081119490680282030120250044014879      
130203004401KDTLML73H48Z154CGALDO                         ANTONIO                             GLDNTN49S08A455T1081119490680282039920250044014879      
130203004401DMCGPP59B09A488XCUCINIELLO                    DOMENICO                            CCNDNC54D08H243O1080419540680282030120250044014824      
130203004401DMCGPP59B09A488XCUCINIELLO                    DOMENICO                            CCNDNC54D08H243O1080419540680282039920250044014824      
130203004401GGLMNL62D65G482JCELENZA                       AURORA                              CLNRRA50R65G482Z2251019500680282030120250044014826      
130203004401GGLMNL62D65G482JCELENZA                       AURORA                              CLNRRA50R65G482Z2251019500680282030220250044014826      
130203004401GGLMNL62D65G482JCELENZA                       AURORA                              CLNRRA50R65G482Z2251019500680282030320250044014826      
130203004401GGLMNL62D65G482JCELENZA                       AURORA                              CLNRRA50R65G482Z2251019500680282039920250044014826      
130203004401NTNRNN60A58G482VDI MUZIO                      LIDIA                               DMZLDI45E52E892I2120519450680392030120250044014746      
130203004401NTNRNN60A58G482VDI MUZIO                      LIDIA                               DMZLDI45E52E892I2120519450680392039920250044014746      
130203004401                BASILISCO                     DANIELE                             BSLDNL58E17Z103G1170519580680242030120250044014744      
130203004401                BASILISCO                     DANIELE                             BSLDNL58E17Z103G1170519580680242039920250044014744      
130203004401VNEMSM75A08I158MCHIAPPINI                     ANTONIO                             CHPNTN62B27G482P1270219620680242030120250044014765      
130203004401VNEMSM75A08I158MCHIAPPINI                     ANTONIO                             CHPNTN62B27G482P1270219620680242039920250044014765      
130203004401VCCVCN67P58E379OROMANO                        MARIA ROSARIA                       RMNMRS59B59L259M2190219590680282030120250044014834      
130203004401VCCVCN67P58E379OROMANO                        MARIA ROSARIA                       RMNMRS59B59L259M2190219590680282039920250044014834      
130203004401mrgsnd77h41a345eFASCIANI                      MARIA                               FSCMRA50B63D201M2230219500680282030120250044014783      
130203004401mrgsnd77h41a345eFASCIANI                      MARIA                               FSCMRA50B63D201M2230219500680282039920250044014783      
130203004401GLNVCN60C27D643XPOMPEO                        ALFONSINO                           PMPLNS35D14L263V1140419350680282030120250044014860      
130203004401GLNVCN60C27D643XPOMPEO                        ALFONSINO                           PMPLNS35D14L263V1140419350680282039920250044014860      
130203004401CCRTTL55M08D472IANTONUCCI                     ADRIANO                             NTNDRN49C17G482W1170319490680282030120250044014835      
130203004401CCRTTL55M08D472IANTONUCCI                     ADRIANO                             NTNDRN49C17G482W1170319490680282039920250044014835      
130203004401drcnll79e04e435aPERDONO'                      ROSETTA                             PRDRTT43P41G312L2010919430680282030120250044014811      
130203004401drcnll79e04e435aPERDONO'                      ROSETTA                             PRDRTT43P41G312L2010919430680282039920250044014811      
130203004401DLRSRA86L50G482LDE PALMA                      IOLANDA                             DPLLND43C45D763X2050319430680282030120250044014771      
130203004401DLRSRA86L50G482LDE PALMA                      IOLANDA                             DPLLND43C45D763X2050319430680282039920250044014771      
130203004401RDLPFC71R07G482MGUCCIARDO                     MARIA                               GCCMRA35S48I723T2081119350680242030120250044014806      
130203004401RDLPFC71R07G482MGUCCIARDO                     MARIA                               GCCMRA35S48I723T2081119350680242039920250044014806      
130203004401GLNVCN60C27D643XSTAFFIERI                     MIRELLA                             STFMLL59D47G482T2070419590680282030120250044014812      
130203004401GLNVCN60C27D643XSTAFFIERI                     MIRELLA                             STFMLL59D47G482T2070419590680282039920250044014812      
130203004401GLNVCN60C27D643XLO PIPARO                     VINCENZA                            LPPVCN44L61A546M2210719440680282030120250044014768      
130203004401GLNVCN60C27D643XLO PIPARO                     VINCENZA                            LPPVCN44L61A546M2210719440680282039920250044014768      
130203004401BLFPTT65M31G482LROSICA                        SILVANA                             RSCSVN32A50A662K2100119320680282030120250044014763      
130203004401BLFPTT65M31G482LROSICA                        SILVANA                             RSCSVN32A50A662K2100119320680282039920250044014763      
130203004401dntpnt93p02z401yCHIRICO                       FRANCESCA                           CHRFNC70M48G482D2080819700680222030120250044014853      
130203004401dntpnt93p02z401yCHIRICO                       FRANCESCA                           CHRFNC70M48G482D2080819700680222030220250044014853      
130203004401dntpnt93p02z401yCHIRICO                       FRANCESCA                           CHRFNC70M48G482D2080819700680222030320250044014853      
130203004401dntpnt93p02z401yCHIRICO                       FRANCESCA                           CHRFNC70M48G482D2080819700680222039920250044014853      
130203004401CRVLCN58A01G482HLEGROTTAGLIE                  PATRIZIA                            LGRPRZ67S62A271T2221119670680282030120250044014767      
130203004401CRVLCN58A01G482HLEGROTTAGLIE                  PATRIZIA                            LGRPRZ67S62A271T2221119670680282039920250044014767      
130203004401GGLMNL62D65G482JCAVALIERE                     ANTONELLA                           CVLNNL62T54G878O2141219620680282030120250044014770      
130203004401GGLMNL62D65G482JCAVALIERE                     ANTONELLA                           CVLNNL62T54G878O2141219620680282030220250044014770      
130203004401GGLMNL62D65G482JCAVALIERE                     ANTONELLA                           CVLNNL62T54G878O2141219620680282039920250044014770      
130203004401CSTCLD58R20L117DCIACCIO                       MILVIA                              CCCMLV57C69G482Z2290319570680282030120250044014880      
130203004401CSTCLD58R20L117DCIACCIO                       MILVIA                              CCCMLV57C69G482Z2290319570680282039920250044014880      
130203004401mncnlg59b13i649hSARTORELLI                    GIULIANA                            SRTGLN46T62E892N2221219460680222030120250044014981      
130203004401mncnlg59b13i649hSARTORELLI                    GIULIANA                            SRTGLN46T62E892N2221219460680222039920250044014981      
130203004401gncsmn81h17g878gD'AMICO                       ANDREA                              DMCNDR38L02C308J1020719380680282030120250044014789      
130203004401gncsmn81h17g878gD'AMICO                       ANDREA                              DMCNDR38L02C308J1020719380680282039920250044014789      
130203004401CRSBMN62M43G555TMORRETTI                      ANNA                                MRRNNA51M52B827B2120819510680282030120250044014837      
130203004401CRSBMN62M43G555TMORRETTI                      ANNA                                MRRNNA51M52B827B2120819510680282039920250044014837      
130203004401PTRDNC90S30G438ZCIANCETTA                     CAMILLO                             CNCCLL45S23G482Z1231119450680282030120250044014761      
130203004401PTRDNC90S30G438ZCIANCETTA                     CAMILLO                             CNCCLL45S23G482Z1231119450680282039920250044014761      
130203004401GLNVCN60C27D643XSANTUCCI                      MARIO                               SNTMRA43P13D201M1130919430680282030120250044014762      
130203004401GLNVCN60C27D643XSANTUCCI                      MARIO                               SNTMRA43P13D201M1130919430680282039920250044014762      
130203004401GLNVCN60C27D643XD'INTINO                      RITA                                DNTRTI46A56G482H2160119460680282030120250044014782      
130203004401GLNVCN60C27D643XD'INTINO                      RITA                                DNTRTI46A56G482H2160119460680282030220250044014782      
130203004401GLNVCN60C27D643XD'INTINO                      RITA                                DNTRTI46A56G482H2160119460680282039920250044014782      
130203004401MRNLDN60A64G482PTIBERI                        STEFANIA                            TBRSFN74P70G482X2300919740680412030120250044014857      
130203004401MRNLDN60A64G482PTIBERI                        STEFANIA                            TBRSFN74P70G482X2300919740680412039920250044014857      
130203004401                BALLA                         PULLUMB                             BLLPLM56A10Z100Q1100119560680242030120250044014846      
130203004401                BALLA                         PULLUMB                             BLLPLM56A10Z100Q1100119560680242039920250044014846      
130203004401GNNRCC62A30D763XCOSANNI                       CLAVIO                              CSNCLV56C16Z103M1160319560680242030120250044014951      
130203004401GNNRCC62A30D763XCOSANNI                       CLAVIO                              CSNCLV56C16Z103M1160319560680242039920250044014951      
130203004401GLNVCN60C27D643XDE DOMINICIS                  NICOLA                              DDMNCL46M29C517Q1290819460680282030120250044014751      
130203004401GLNVCN60C27D643XDE DOMINICIS                  NICOLA                              DDMNCL46M29C517Q1290819460680282039920250044014751      
130203004401                IEZZI                         PASQUALINA                          ZZIPQL44P70C449D2300919440680282030120250044014801      
130203004401                IEZZI                         PASQUALINA                          ZZIPQL44P70C449D2300919440680282039920250044014801      
130203004401SNTSRA60A66Z103EPALMUCCI                      EMMA                                PLMMME35P58C853I2180919350680282030120250044014799      
130203004401SNTSRA60A66Z103EPALMUCCI                      EMMA                                PLMMME35P58C853I2180919350680282039920250044014799      
130203004401SLVRLB55H46A132NDI RUSCIO                     MARISA                              DRSMRS58L64I838H2240719580680392030120250044014819      
130203004401SLVRLB55H46A132NDI RUSCIO                     MARISA                              DRSMRS58L64I838H2240719580680392039920250044014819      
130203004401                MANZO                         GIOVANNI                            MNZGNN58L26G482H1260719580680282030120250044014861      
130203004401                MANZO                         GIOVANNI                            MNZGNN58L26G482H1260719580680282030220250044014861      
130203004401                MANZO                         GIOVANNI                            MNZGNN58L26G482H1260719580680282039920250044014861      
130203004401crrmhl58a66g482lEPIFANI                       MARCO                               PFNMRC69B22G482F1220219690680242030120250044014863      
130203004401crrmhl58a66g482lEPIFANI                       MARCO                               PFNMRC69B22G482F1220219690680242030220250044014863      
130203004401crrmhl58a66g482lEPIFANI                       MARCO                               PFNMRC69B22G482F1220219690680242039920250044014863      
130203004401lbrgmr91p05e335pCOLUCCI                       GRAZIELLA                           CLCGZL48E63D763D2230519480680282030120250044014938      
130203004401lbrgmr91p05e335pCOLUCCI                       GRAZIELLA                           CLCGZL48E63D763D2230519480680282039920250044014938      
130203004401DDNMRC58B04C316DGIANSANTE                     RENIO                               GNSRNE46P11H562B1110919460680352030120250044014982      
130203004401DDNMRC58B04C316DGIANSANTE                     RENIO                               GNSRNE46P11H562B1110919460680352039920250044014982      
130203004401LRVVNT84A44G482ACIACCIO                       ILARIA                              CCCLRI87E60G482F2200519870680282030120250044014884      
130203004401LRVVNT84A44G482ACIACCIO                       ILARIA                              CCCLRI87E60G482F2200519870680282039920250044014884      
130203004401DRLZRR78H55G482KIACHINI                       PIER GINO                           CHNPGN55A14Z614Y1140119550680282030120250044014913      
130203004401DRLZRR78H55G482KIACHINI                       PIER GINO                           CHNPGN55A14Z614Y1140119550680282039920250044014913      
130203004401FLLNLN55S15F380TD'AMBROSIO                    PALMINA                             DMBPMN49B42G482Q2020219490680282030120250044014909      
130203004401FLLNLN55S15F380TD'AMBROSIO                    PALMINA                             DMBPMN49B42G482Q2020219490680282039920250044014909      
130203004401GLNVCN60C27D643XDI GREGORIO                   CARMINA                             DGRCMN39E66H562B2260519390680412030120250044014904      
130203004401GLNVCN60C27D643XDI GREGORIO                   CARMINA                             DGRCMN39E66H562B2260519390680412039920250044014904      
130203004401FRRRTT83T46G438YLIA                           MARIA VINCENZA                      LIAMVN53A41F842Y2010119530680252030120250044014983      
130203004401FRRRTT83T46G438YLIA                           MARIA VINCENZA                      LIAMVN53A41F842Y2010119530680252039920250044014983      
130203004401dmtmra86a07g482uFORCUCCI                      ARMANDO                             FRCRND43E11E892E1110519430680282030120250044014897      
130203004401dmtmra86a07g482uFORCUCCI                      ARMANDO                             FRCRND43E11E892E1110519430680282039920250044014897      
130203004401diimrs68h58b519qPETTINELLI                    ELISABETTA                          PTTLBT48A59A271S2190119480680282030120250044014928      
130203004401diimrs68h58b519qPETTINELLI                    ELISABETTA                          PTTLBT48A59A271S2190119480680282039920250044014928      
130203004401SLLRNT54E25D122EDI NICOLANTONIO               NICOLETTA                           DNCNLT50R64F908M2241019500680262030120250044014944      
130203004401SLLRNT54E25D122EDI NICOLANTONIO               NICOLETTA                           DNCNLT50R64F908M2241019500680262039920250044014944      
130203004401DLSGPP64S10A669ZBELMONTE                      ANITA                               BLMNTA52L41C750A2010719520680122030120250044014984      
130203004401DLSGPP64S10A669ZBELMONTE                      ANITA                               BLMNTA52L41C750A2010719520680122039920250044014984      
130203004401RDCFNC54B28G482FMARSILI                       AGOSTINO                            MRSGTN45M01G621F1010819450680322030120250044014947      
130203004401RDCFNC54B28G482FMARSILI                       AGOSTINO                            MRSGTN45M01G621F1010819450680322039920250044014947      
130203004401grgvlr77t56g482tMATTIOLI                      MIRCO                               MTTMRC73B07G482I1070219730680122030120250044014986      
130203004401grgvlr77t56g482tMATTIOLI                      MIRCO                               MTTMRC73B07G482I1070219730680122039920250044014986      
130203004401DDNMLN83P51G438WMAZZOCCHETTI                  PAOLA                               MZZPLA48A66C750T2260119480680242030120250044014969      
130203004401DDNMLN83P51G438WMAZZOCCHETTI                  PAOLA                               MZZPLA48A66C750T2260119480680242039920250044014969      
130203004401PNTMNS57S10L186SDEL ROSSO                     FRANCESCO                           DLRFNC47R16L186X1161019470680422030120250044014956      
130203004401PNTMNS57S10L186SDEL ROSSO                     FRANCESCO                           DLRFNC47R16L186X1161019470680422039920250044014956      
130203004401SNSNGL63R41A488MPETITO                        ROSA                                PTTRSO53C70I293H2300319530680282030120250044014931      
130203004401SNSNGL63R41A488MPETITO                        ROSA                                PTTRSO53C70I293H2300319530680282039920250044014931      
130203004401FLSZEI66T08A345AVALERIANI                     PATRIZIA                            VLRPRZ68D69I922O2290419680680412030120250044014919      
130203004401FLSZEI66T08A345AVALERIANI                     PATRIZIA                            VLRPRZ68D69I922O2290419680680412030220250044014919      
130203004401FLSZEI66T08A345AVALERIANI                     PATRIZIA                            VLRPRZ68D69I922O2290419680680412039920250044014919      
130203004401                FAIETA                        MARIA SILVANA                       FTAMSL45E56L922U2160519450680242030120250044014905      
130203004401                FAIETA                        MARIA SILVANA                       FTAMSL45E56L922U2160519450680242039920250044014905      
130203004401PTRDNC90S30G438ZRABOTTINI                     SILVANA                             RBTSVN53S43Z103F2031119530680282030120250044014910      
130203004401PTRDNC90S30G438ZRABOTTINI                     SILVANA                             RBTSVN53S43Z103F2031119530680282039920250044014910      
130203004401PTRDNC90S30G438ZCRISCI                        ANNA MARIA                          CRSNMR55A55H243M2150119550680282030120250044014935      
130203004401PTRDNC90S30G438ZCRISCI                        ANNA MARIA                          CRSNMR55A55H243M2150119550680282039920250044014935      
130203004401PTRDNC90S30G438ZCRISCI                        ANNA MARIA                          CRSNMR55A55H243M2150119550680282030120250044014936      
130203004401PTRDNC90S30G438ZCRISCI                        ANNA MARIA                          CRSNMR55A55H243M2150119550680282039920250044014936      
130203004401DMNSDR64H14Z330HPACE                          CONCETTA                            PCACCT47R50I376V2101019470680282030120250044014915      
130203004401DMNSDR64H14Z330HPACE                          CONCETTA                            PCACCT47R50I376V2101019470680282030220250044014915      
130203004401DMNSDR64H14Z330HPACE                          CONCETTA                            PCACCT47R50I376V2101019470680282039920250044014915      
130203004401GDTFNC56R27C474CDI DONATO                     GABRIELE                            DDNGRL50B04E892K1040219500680112030120250044014911      
130203004401GDTFNC56R27C474CDI DONATO                     GABRIELE                            DDNGRL50B04E892K1040219500680112030220250044014911      
130203004401GDTFNC56R27C474CDI DONATO                     GABRIELE                            DDNGRL50B04E892K1040219500680112039920250044014911      
130203004401dmrfrn56c48z614uPAGLIONE                      ANTONIETTA                          PGLNNT55E70L224X2300519550680282030120250044014948      
130203004401dmrfrn56c48z614uPAGLIONE                      ANTONIETTA                          PGLNNT55E70L224X2300519550680282039920250044014948      
130203004401GDTFNC56R27C474CDI LIZIO                      ABELE                               DLZBLA36C15C474B1150319360680112030120250044014987      
130203004401GDTFNC56R27C474CDI LIZIO                      ABELE                               DLZBLA36C15C474B1150319360680112030220250044014987      
130203004401GDTFNC56R27C474CDI LIZIO                      ABELE                               DLZBLA36C15C474B1150319360680112039920250044014987      
130203004401TSCLCU81C71D810ZREZZA                         CLAUDIO                             RZZCLD53L17C363V1170719530680242030120250044014887      
130203004401TSCLCU81C71D810ZREZZA                         CLAUDIO                             RZZCLD53L17C363V1170719530680242030220250044014887      
130203004401TSCLCU81C71D810ZREZZA                         CLAUDIO                             RZZCLD53L17C363V1170719530680242039920250044014887      
130203004401crncrl57t18d803qDE BERARDINIS                 FERDINANDO                          DBRFDN28A13C632K1130119280680282030120250044014894      
130203004401crncrl57t18d803qDE BERARDINIS                 FERDINANDO                          DBRFDN28A13C632K1130119280680282039920250044014894      
130203004401DSCSDR58S41I348RDI CINTIO                     OLGA                                DCNLGO43L67D763L2270719430680412030120250044014916      
130203004401DSCSDR58S41I348RDI CINTIO                     OLGA                                DCNLGO43L67D763L2270719430680412039920250044014916      
130203004401MSCPLA63C12G482NDI GIROLAMO                   DORIANA                             DGRDRN63B63G482A2230219630680282030120250044014906      
130203004401MSCPLA63C12G482NDI GIROLAMO                   DORIANA                             DGRDRN63B63G482A2230219630680282030220250044014906      
130203004401MSCPLA63C12G482NDI GIROLAMO                   DORIANA                             DGRDRN63B63G482A2230219630680282039920250044014906      
130203004401dlcrml59l24c449mDEL GRAMMASTRO                GABRIELE                            DLGGRL74H12G482A1120619740680302030120250044014892      
130203004401dlcrml59l24c449mDEL GRAMMASTRO                GABRIELE                            DLGGRL74H12G482A1120619740680302030220250044014892      
130203004401dlcrml59l24c449mDEL GRAMMASTRO                GABRIELE                            DLGGRL74H12G482A1120619740680302030320250044014892      
130203004401dlcrml59l24c449mDEL GRAMMASTRO                GABRIELE                            DLGGRL74H12G482A1120619740680302030420250044014892      
130203004401dlcrml59l24c449mDEL GRAMMASTRO                GABRIELE                            DLGGRL74H12G482A1120619740680302030520250044014892      
130203004401dlcrml59l24c449mDEL GRAMMASTRO                GABRIELE                            DLGGRL74H12G482A1120619740680302039920250044014892      
130203004401DMCGPP59B09A488XDE MICHELE                    MARIA PIA                           DMCMRP48A51D643H2110119480680282030120250044014743      
130203004401DMCGPP59B09A488XDE MICHELE                    MARIA PIA                           DMCMRP48A51D643H2110119480680282030220250044014743      
130203004401DMCGPP59B09A488XDE MICHELE                    MARIA PIA                           DMCMRP48A51D643H2110119480680282039920250044014743      
130203004401                MANTENUTO                     ANTONIETTA                          MNTNNT68H53G482V2130619680680392030120250044014890      
130203004401                MANTENUTO                     ANTONIETTA                          MNTNNT68H53G482V2130619680680392039920250044014890      
130203004401TZUDMN88L31A515UPEREIRA DA SILVA              CLARICE                             PRRCRC83T59Z602R2191219830680282030120250044014990      
130203004401TZUDMN88L31A515UPEREIRA DA SILVA              CLARICE                             PRRCRC83T59Z602R2191219830680282039920250044014990      
130203004401SNTCRI58P02I922SMARTELLA                      ANNA                                MRTNNA47D52A488V2120419470680412030120250044014930      
130203004401SNTCRI58P02I922SMARTELLA                      ANNA                                MRTNNA47D52A488V2120419470680412030220250044014930      
130203004401SNTCRI58P02I922SMARTELLA                      ANNA                                MRTNNA47D52A488V2120419470680412039920250044014930      
130203004401TRPNCL55S07L103YORSINI                        STEFANIA                            RSNSFN70C47G482F2070319700680282030120250044014939      
130203004401TRPNCL55S07L103YORSINI                        STEFANIA                            RSNSFN70C47G482F2070319700680282039920250044014939      
130203004401GNNRCC62A30D763XTIERI                         NICOLETTA                           TRINLT56T64I335J2241219560680242030120250044014927      
130203004401GNNRCC62A30D763XTIERI                         NICOLETTA                           TRINLT56T64I335J2241219560680242030220250044014927      
130203004401GNNRCC62A30D763XTIERI                         NICOLETTA                           TRINLT56T64I335J2241219560680242039920250044014927      
130203004401                IACOVOZZI                     FRANCO                              CVZFNC65L15G482M1150719650680112030120250044014914      
130203004401                IACOVOZZI                     FRANCO                              CVZFNC65L15G482M1150719650680112039920250044014914      
130203004401                TERRENZIO                     ANGELO                              TRRNGL44A19G141U1190119440680282030120250044014992      
130203004401                TERRENZIO                     ANGELO                              TRRNGL44A19G141U1190119440680282039920250044014992      
130203004401DLRSVN66T49C632WD'ANGELO                      REMO                                DNGRME43C07C474F1070319430680112030120250044014902      
130203004401DLRSVN66T49C632WD'ANGELO                      REMO                                DNGRME43C07C474F1070319430680112039920250044014902      
130203004401clbccl86r55h501bMARZOLI                       EDMEA                               MRZDME58C46G482A2060319580680242030120250044014991      
130203004401clbccl86r55h501bMARZOLI                       EDMEA                               MRZDME58C46G482A2060319580680242039920250044014991      
130203004401DCLMRN60T71G482GLA VISTA                      SABRINA                             LVSSRN65M49G482L2090819650680282030120250044014908      
130203004401DCLMRN60T71G482GLA VISTA                      SABRINA                             LVSSRN65M49G482L2090819650680282039920250044014908      
130203004401LRVVNT84A44G482ADI SILVESTRO                  ANNA CARMELA                        DSLNCR44H57A965A2170619440680282030120250044014917      
130203004401LRVVNT84A44G482ADI SILVESTRO                  ANNA CARMELA                        DSLNCR44H57A965A2170619440680282030220250044014917      
130203004401LRVVNT84A44G482ADI SILVESTRO                  ANNA CARMELA                        DSLNCR44H57A965A2170619440680282039920250044014917      
130203004401                FUSILLI                       DOMENICO                            FSLDNC50P19G482W1190919500680282030120250044014740      
130203004401                FUSILLI                       DOMENICO                            FSLDNC50P19G482W1190919500680282039920250044014740      
130203004401CSTCLD58R20L117DZINI                          NADIA                               ZNINDA52E52C621Y2120519520680282030120250044014745      
130203004401CSTCLD58R20L117DZINI                          NADIA                               ZNINDA52E52C621Y2120519520680282039920250044014745      
130203004401                STICCA                        GIORGIA                             STCGRG00D48G482L2080420000680422030120250044014993      
130203004401                STICCA                        GIORGIA                             STCGRG00D48G482L2080420000680422039920250044014993      
130203004401frnfmn68e49d643qLA SORDA                      ANTONIETTA                          LSRNNT39B41G482A2010219390680282030120250044014959      
130203004401frnfmn68e49d643qLA SORDA                      ANTONIETTA                          LSRNNT39B41G482A2010219390680282039920250044014959      
130203004401                GIULIANI                      SIMONA                              GLNSMN72L64G482F2240719720680242030120250044014961      
130203004401                GIULIANI                      SIMONA                              GLNSMN72L64G482F2240719720680242039920250044014961      
130203004401                ZARAMELLI                     LUISA                               ZRMLSU59C57G482W2170319590680282030120250044014737      
130203004401                ZARAMELLI                     LUISA                               ZRMLSU59C57G482W2170319590680282039920250044014737      
130203004401cccgfr57p24z614cCAVICCHIOLO                   MARISA                              CVCMRS43H45L199A2050619430680242030120250044014973      
130203004401cccgfr57p24z614cCAVICCHIOLO                   MARISA                              CVCMRS43H45L199A2050619430680242030220250044014973      
130203004401cccgfr57p24z614cCAVICCHIOLO                   MARISA                              CVCMRS43H45L199A2050619430680242039920250044014973      
130203004401DVLFNN53M25I649LCHIAVAROLI                    CARLO                               CHVCRL51A25E691X1250119510680282030120250044014974      
130203004401DVLFNN53M25I649LCHIAVAROLI                    CARLO                               CHVCRL51A25E691X1250119510680282039920250044014974      
130203004401                MONTANARO                     MARCELLINO                          MNTMCL46H18L466K1180619460680242030120250044014975      
130203004401                MONTANARO                     MARCELLINO                          MNTMCL46H18L466K1180619460680242039920250044014975      
130203004401TRPNCL55S07L103YDONATELLO                     ANTONIO                             DNTNTN45H11G438N1110619450680122030120250044014976      
130203004401TRPNCL55S07L103YDONATELLO                     ANTONIO                             DNTNTN45H11G438N1110619450680122039920250044014976      
130203004401CLVMLS58L50H5L1SCOCCIA                        INNOCENZA                           CCCNCN32R45C779U2051019320680242030120250044014977      
130203004401CLVMLS58L50H5L1SCOCCIA                        INNOCENZA                           CCCNCN32R45C779U2051019320680242039920250044014977      
130203004401                PAOLETTI                      LUCIA                               PLTLCU64P60Z614N2200919640680282030120250044014741      
130203004401                PAOLETTI                      LUCIA                               PLTLCU64P60Z614N2200919640680282030220250044014741      
130203004401                PAOLETTI                      LUCIA                               PLTLCU64P60Z614N2200919640680282039920250044014741      
130203004401DMCGPP59B09A488XTEODORO                       ANGELA                              TDRNGL49D49B808X2090419490680282030120250044014742      
130203004401DMCGPP59B09A488XTEODORO                       ANGELA                              TDRNGL49D49B808X2090419490680282039920250044014742      
130203004401LRVVNT84A44G482ADELLE MONACHE                 LINA                                DLLLNI66C69G438V2290319660680282030120250044014972      
130203004401LRVVNT84A44G482ADELLE MONACHE                 LINA                                DLLLNI66C69G438V2290319660680282039920250044014972      
130203004401                FERRI                         ZOPITO                              FRRZPT41B02F765L1020219410680252030120250044014752      
130203004401                FERRI                         ZOPITO                              FRRZPT41B02F765L1020219410680252030220250044014752      
130203004401                FERRI                         ZOPITO                              FRRZPT41B02F765L1020219410680252030320250044014752      
130203004401                FERRI                         ZOPITO                              FRRZPT41B02F765L1020219410680252039920250044014752      
130203004401                TRABUCCO                      AMERICO                             TRBMRC55M05C771Y1050819550680132030120250044014753      
130203004401                TRABUCCO                      AMERICO                             TRBMRC55M05C771Y1050819550680132030220250044014753      
130203004401                TRABUCCO                      AMERICO                             TRBMRC55M05C771Y1050819550680132030320250044014753      
130203004401                TRABUCCO                      AMERICO                             TRBMRC55M05C771Y1050819550680132039920250044014753      
130203004401crrmhl58a66g482lASTOLFI                       NICOLA                              STLNCL73A11G438T1110119730680272030120250044014749      
130203004401crrmhl58a66g482lASTOLFI                       NICOLA                              STLNCL73A11G438T1110119730680272039920250044014749      
130203004401DVLFNN53M25I649LDI ROCCO                      ADELINA                             DRCDLN63A57A488W2170119630680282030120250044014748      
130203004401DVLFNN53M25I649LDI ROCCO                      ADELINA                             DRCDLN63A57A488W2170119630680282039920250044014748      
130203004401                ORLANDO                       EGIDIO                              RLNGDE61H13C853A1130619610680152030120250044014754      
130203004401                ORLANDO                       EGIDIO                              RLNGDE61H13C853A1130619610680152039920250044014754      
130203004401CRSMRZ82C49G482CNAZARI                        ROMINA                              NZRRMN72B68G438A2280219720680302030120250044014994      
130203004401CRSMRZ82C49G482CNAZARI                        ROMINA                              NZRRMN72B68G438A2280219720680302039920250044014994      
130203004401VCCVCN67P58E379OCORNELII                      MANUELA                             CRNMNL59B64G482U2240219590680282030120250044014957      
130203004401VCCVCN67P58E379OCORNELII                      MANUELA                             CRNMNL59B64G482U2240219590680282039920250044014957      
130203004401                CONSORTE                      ORLANDO                             CNSRND70C09G482L1090319700680242030120250044014881      
130203004401                CONSORTE                      ORLANDO                             CNSRND70C09G482L1090319700680242039920250044014881      
1302030044010000000000003100COWELL                        JANINE KAY                          CWLJNK69B59Z114Z2190219690680282030120250044014862      
1302030044010000000000003100COWELL                        JANINE KAY                          CWLJNK69B59Z114Z2190219690680282030220250044014862      
1302030044010000000000003100COWELL                        JANINE KAY                          CWLJNK69B59Z114Z2190219690680282030320250044014862      
1302030044010000000000003100COWELL                        JANINE KAY                          CWLJNK69B59Z114Z2190219690680282039920250044014862      
130203004401mrsprz57a66g482jDI DONATO                     SAVERIO                             DDNSVR52H21G482H1210619520680282030120250044014793      
130203004401mrsprz57a66g482jDI DONATO                     SAVERIO                             DDNSVR52H21G482H1210619520680282039920250044014793      
130203004401                LUCIANI                       GRAZIELLA                           LCNGZL41L41G237L2010719410680282030120250044014839      
130203004401                LUCIANI                       GRAZIELLA                           LCNGZL41L41G237L2010719410680282039920250044014839      
130203004401PLMMCM58T57G482QGHEORGHE                      GIGI                                GHRGGI67M17Z129J1170819670680282030120250044014929      
130203004401PLMMCM58T57G482QGHEORGHE                      GIGI                                GHRGGI67M17Z129J1170819670680282039920250044014929      
130203004401MNTNDA64R65I158NGALANTE                       FRANCESCO                           GLNFNC49A02I333S1020119490680282030120250044014898      
130203004401MNTNDA64R65I158NGALANTE                       FRANCESCO                           GLNFNC49A02I333S1020119490680282030220250044014898      
130203004401MNTNDA64R65I158NGALANTE                       FRANCESCO                           GLNFNC49A02I333S1020119490680282030320250044014898      
130203004401MNTNDA64R65I158NGALANTE                       FRANCESCO                           GLNFNC49A02I333S1020119490680282039920250044014898      
130203004401TRVSVN57C46Z345TMATTUCCI                      ANNA                                MTTNNA65H70A488J2300619650680282030120250044014968      
130203004401TRVSVN57C46Z345TMATTUCCI                      ANNA                                MTTNNA65H70A488J2300619650680282039920250044014968      
130203004401LBBMRT89L41G482EDE VICO                       MARIA                               DVCMRA46T61G002W2211219460680282030120250044015146      
130203004401LBBMRT89L41G482EDE VICO                       MARIA                               DVCMRA46T61G002W2211219460680282030220250044015146      
130203004401LBBMRT89L41G482EDE VICO                       MARIA                               DVCMRA46T61G002W2211219460680282039920250044015146      
130203004401dbtlcn64d25g482qCALIMERI                      ADALGISA                            CLMDGS60E51F500O2110519600680242030120250044014967      
130203004401dbtlcn64d25g482qCALIMERI                      ADALGISA                            CLMDGS60E51F500O2110519600680242039920250044014967      
130203004401BRGLCU75M26G482XGUOBADIA                      PATRICK ENOUYI                      GBDPRC57M18Z335Y1180819570680282030120250044014996      
130203004401BRGLCU75M26G482XGUOBADIA                      PATRICK ENOUYI                      GBDPRC57M18Z335Y1180819570680282039920250044014996      
130203004401                SIGISMUNDI                    ANNA                                SGSNNA56R57B722H2171019560680282030120250044014933      
130203004401                SIGISMUNDI                    ANNA                                SGSNNA56R57B722H2171019560680282039920250044014933      
130203004401                CARESTIA                      SERENA                              CRSSRN76S69C632E2291119760680222030120250044014980      
130203004401                CARESTIA                      SERENA                              CRSSRN76S69C632E2291119760680222039920250044014980      
130203004401DDNMRC58B04C316DANDREOZZI                     MARIO                               NDRMRA49B22A512R1220219490680062030120250044014896      
130203004401DDNMRC58B04C316DANDREOZZI                     MARIO                               NDRMRA49B22A512R1220219490680062039920250044014896      
130203004401                TINI                          ANTONIETTA                          TNINNT59C60A488M2200319590680182030120250044014997      
130203004401                TINI                          ANTONIETTA                          TNINNT59C60A488M2200319590680182039920250044014997      
130203004401MZZLVR59D14F585ATARANTELLI                    GALILEO                             TRNGLL40L22D501E1220719400680242030120250044014964      
130203004401MZZLVR59D14F585ATARANTELLI                    GALILEO                             TRNGLL40L22D501E1220719400680242039920250044014964      
130203004401CRRPLA92M08G482HBALOSHI                       KASTRIJOT                           BLSKTR79P03Z100W1030919790680282030120250044014978      
130203004401CRRPLA92M08G482HBALOSHI                       KASTRIJOT                           BLSKTR79P03Z100W1030919790680282039920250044014978      
130203004401TTNMLN89A41G482NGONZALES                      CECILIA MARLENE                     GNZCLM54L47Z614F2070719540680352030120250044014922      
130203004401TTNMLN89A41G482NGONZALES                      CECILIA MARLENE                     GNZCLM54L47Z614F2070719540680352039920250044014922      
130203004401DSLFNC82B06G482QAMADIO                        ORIANO                              MDARNO54C01C853Y1010319540680152030120250044014998      
130203004401DSLFNC82B06G482QAMADIO                        ORIANO                              MDARNO54C01C853Y1010319540680152039920250044014998      
130203004401dlpdbr91t43b985bBUCCIARELLI                   FRANCA                              BCCFNC61C62Z110P2220319610680342030120250044014999      
130203004401dlpdbr91t43b985bBUCCIARELLI                   FRANCA                              BCCFNC61C62Z110P2220319610680342039920250044014999      
130203004401dlpdbr91t43b985bD'ANGELO                      FRANCO                              DNGFNC60S11H425R1111119600680342030120250044015000      
130203004401dlpdbr91t43b985bD'ANGELO                      FRANCO                              DNGFNC60S11H425R1111119600680342039920250044015000      
130203004401frllra90r59g482gCIANCETTA                     FERNANDO                            CNCFNN45C15G482S1150319450680282030120250044015001      
130203004401frllra90r59g482gCIANCETTA                     FERNANDO                            CNCFNN45C15G482S1150319450680282039920250044015001      
130203004401trbdtl66a29c771aD'ETTORRE                     LINA                                DTTLNI46C56F646C2160319460680282030120250044015002      
130203004401trbdtl66a29c771aD'ETTORRE                     LINA                                DTTLNI46C56F646C2160319460680282030220250044015002      
130203004401trbdtl66a29c771aD'ETTORRE                     LINA                                DTTLNI46C56F646C2160319460680282039920250044015002      
130203004401mncnlg59b13i649hFERRI                         SIMONA                              FRRSMN76B65C632Y2250219760680222030120250044014971      
130203004401mncnlg59b13i649hFERRI                         SIMONA                              FRRSMN76B65C632Y2250219760680222039920250044014971      
130203004401DGRFNC56R16I376YGIGANTE                       MILENA                              GGNMLN79B41C632V2010219790680382030120250044015003      
130203004401DGRFNC56R16I376YGIGANTE                       MILENA                              GGNMLN79B41C632V2010219790680382039920250044015003      
130203004401DMLGTN57C10E892QD'ASCANIO                     ANDREA                              DSCNDR97M30I804X1300819970680392030120250044014965      
130203004401DMLGTN57C10E892QD'ASCANIO                     ANDREA                              DSCNDR97M30I804X1300819970680392039920250044014965      
130203004401mrsprz57a66g482jSERAFINI                      ADRIANO                             SRFDRN50S30G482T1301119500680282030120250044015004      
130203004401mrsprz57a66g482jSERAFINI                      ADRIANO                             SRFDRN50S30G482T1301119500680282039920250044015004      
130203004401crrmhl58a66g482lVELENO                        MATTEO                              VLNMTT61R27F548O1271019610680242030120250044014941      
130203004401crrmhl58a66g482lVELENO                        MATTEO                              VLNMTT61R27F548O1271019610680242030220250044014941      
130203004401crrmhl58a66g482lVELENO                        MATTEO                              VLNMTT61R27F548O1271019610680242039920250044014941      
130203004401SLVFMN56M65H425AD'ANNUNZIO                    ANNA                                DNNNNA41H68G482X2280619410680282030120250044014903      
130203004401SLVFMN56M65H425AD'ANNUNZIO                    ANNA                                DNNNNA41H68G482X2280619410680282030220250044014903      
130203004401SLVFMN56M65H425AD'ANNUNZIO                    ANNA                                DNNNNA41H68G482X2280619410680282039920250044014903      
130203004401ptrmtr95m70g482xLUFINO                        ANTONIO                             LFNNTN62P01G482N1010919620680282030120250044014889      
130203004401ptrmtr95m70g482xLUFINO                        ANTONIO                             LFNNTN62P01G482N1010919620680282039920250044014889      
130203004401CRVLCN58A01G482HMARCIANI                      UGO                                 MRCGUO60L08C632J1080719600680242030120250044014943      
130203004401CRVLCN58A01G482HMARCIANI                      UGO                                 MRCGUO60L08C632J1080719600680242039920250044014943      
130203004401                MINUTO                        LUCIA                               MNTLCU69P69G482H2290919690680282030120250044014924      
130203004401                MINUTO                        LUCIA                               MNTLCU69P69G482H2290919690680282030220250044014924      
130203004401                MINUTO                        LUCIA                               MNTLCU69P69G482H2290919690680282030320250044014924      
130203004401                MINUTO                        LUCIA                               MNTLCU69P69G482H2290919690680282039920250044014924      
130203004401                PLASTE                        SELAM                               PLSSLM66M10Z148T1100819660680432030120250044015005      
130203004401                PLASTE                        SELAM                               PLSSLM66M10Z148T1100819660680432039920250044015005      
130203004401dlpdbr91t43b985bGIORDANO                      LUCIA                               GRDLCU61P68B722O2280919610680072030120250044015006      
130203004401dlpdbr91t43b985bGIORDANO                      LUCIA                               GRDLCU61P68B722O2280919610680072039920250044015006      
130203004401zppmrt83r46l780kLOMBARDO                      MARIANNA                            LMBMNN53M47D932S2070819530680302030120250044014952      
130203004401zppmrt83r46l780kLOMBARDO                      MARIANNA                            LMBMNN53M47D932S2070819530680302039920250044014952      
130203004401                MARINO                        LAURA                               MRNLRA62A61G482W2210119620680282030120250044014955      
130203004401                MARINO                        LAURA                               MRNLRA62A61G482W2210119620680282039920250044014955      
130203004401cllbbr73b44g482vFRISA                         NICOLA                              FRSNCL67A13D501O1130119670680242030120250044015007      
130203004401cllbbr73b44g482vFRISA                         NICOLA                              FRSNCL67A13D501O1130119670680242039920250044015007      
130203004401DMRMCR58D68Z614IELIA                          VITA                                LEIVTI40P61C424G2210919400680282030120250044014899      
130203004401DMRMCR58D68Z614IELIA                          VITA                                LEIVTI40P61C424G2210919400680282039920250044014899      
130203004401DLSGPP64S10A669ZGIANSANTE                     CARMELA                             GNSCML47D53C750B2130419470680122030120250044015008      
130203004401DLSGPP64S10A669ZGIANSANTE                     CARMELA                             GNSCML47D53C750B2130419470680122039920250044015008      
130203004401dgvlri87e42g438bCIOFANI                       LUCA                                CFNLCU81E17G482L1170519810680282030120250044014882      
130203004401dgvlri87e42g438bCIOFANI                       LUCA                                CFNLCU81E17G482L1170519810680282039920250044014882      
130203004401TRVSVN57C46Z345TMARANGONI                     ASSUNTA                             MRNSNT54M45Z602B2050819540680282030120250044014970      
130203004401TRVSVN57C46Z345TMARANGONI                     ASSUNTA                             MRNSNT54M45Z602B2050819540680282039920250044014970      
130203004401DLNSNO65T61G438LDI PIETRO                     PASQUALE                            DPTPQL40T11I922Y1111219400680412030120250044014920      
130203004401DLNSNO65T61G438LDI PIETRO                     PASQUALE                            DPTPQL40T11I922Y1111219400680412039920250044014920      
130203004401TZUDMN88L31A515UCIAMPITTI                     NADIA                               CMPNDA68C56Z133T2160319680680282030120250044015009      
130203004401TZUDMN88L31A515UCIAMPITTI                     NADIA                               CMPNDA68C56Z133T2160319680680282039920250044015009      
130203004401                COLAIOCCO                     LUCIANA                             CLCLCN65M59L846H2190819650680062030120250044015010      
130203004401                COLAIOCCO                     LUCIANA                             CLCLCN65M59L846H2190819650680062039920250044015010      
130203004401TRLNGL63C53A271RDI MAURO                      LILIANA                             DMRLLN42D58L273X2180419420680282030120250044014900      
130203004401TRLNGL63C53A271RDI MAURO                      LILIANA                             DMRLLN42D58L273X2180419420680282039920250044014900      
130203004401DPCPML64H62G482QMEZENGHIE                     LEGEST                              MZNLST56P60Z368J2200919560680282030120250044014923      
130203004401DPCPML64H62G482QMEZENGHIE                     LEGEST                              MZNLST56P60Z368J2200919560680282039920250044014923      
130203004401crrmhl58a66g482lANTONELLI                     MANUEL                              NTNMNL83R02G482J1021019830680282030120250044014937      
130203004401crrmhl58a66g482lANTONELLI                     MANUEL                              NTNMNL83R02G482J1021019830680282039920250044014937      
130203004401PLMMCM58T57G482QCIAMPOLI                      ANTONIO MASSIMO                     CMPNNM54C20G482O1200319540680282030120250044015011      
130203004401PLMMCM58T57G482QCIAMPOLI                      ANTONIO MASSIMO                     CMPNNM54C20G482O1200319540680282039920250044015011      
130203004401ptrmtr95m70g482xSPINELLI                      ARMANDO                             SPNRND95A30C632N1300119950680282030120250044014932      
130203004401ptrmtr95m70g482xSPINELLI                      ARMANDO                             SPNRND95A30C632N1300119950680282039920250044014932      
130203004401sdgldi61r67z224oMASSEI                        AMALIO                              MSSMLA37H27D501A1270619370680242030120250044015012      
130203004401sdgldi61r67z224oMASSEI                        AMALIO                              MSSMLA37H27D501A1270619370680242039920250044015012      
130203004401cmprrt79e01f839rANGELUCCI                     ANTONIETTA                          NGLNNT58H64Z103L2240619580680242030120250044014979      
130203004401cmprrt79e01f839rANGELUCCI                     ANTONIETTA                          NGLNNT58H64Z103L2240619580680242039920250044014979      
130203004401mncvei90p24i804pNANNI                         STEFANO                             NNNSFN68L30L103Q1300719680680242030120250044015013      
130203004401mncvei90p24i804pNANNI                         STEFANO                             NNNSFN68L30L103Q1300719680680242030220250044015013      
130203004401mncvei90p24i804pNANNI                         STEFANO                             NNNSFN68L30L103Q1300719680680242030320250044015013      
130203004401mncvei90p24i804pNANNI                         STEFANO                             NNNSFN68L30L103Q1300719680680242039920250044015013      
130203004401crrmhl58a66g482lSALVATORE                     PALMINO CESARE                      SLVPMN62T15G878T1151219620680052030120250044015014      
130203004401crrmhl58a66g482lSALVATORE                     PALMINO CESARE                      SLVPMN62T15G878T1151219620680052039920250044015014      
130203004401CLMSRA92C55G482ECICCHELLI                     ALFREDO                             CCCLRD56E28I376Q1280519560680282030120250044014885      
130203004401CLMSRA92C55G482ECICCHELLI                     ALFREDO                             CCCLRD56E28I376Q1280519560680282039920250044014885      
130203004401dfrfnc54d13g482dTARQUINIO                     MARIO                               TRQMRA52S30G499D1301119520680282030120250044014950      
130203004401dfrfnc54d13g482dTARQUINIO                     MARIO                               TRQMRA52S30G499D1301119520680282030220250044014950      
130203004401dfrfnc54d13g482dTARQUINIO                     MARIO                               TRQMRA52S30G499D1301119520680282039920250044014950      
130203004401DMRDNT53R29F765BKOLESNYK                      SVITLANA                            KLSSTL63R58Z138J2181019630680412030120250044014907      
130203004401DMRDNT53R29F765BKOLESNYK                      SVITLANA                            KLSSTL63R58Z138J2181019630680412039920250044014907      
130203004401TSTDTL58C62D969GCANDELORO                     ORIANO                              CNDRNO57R28F646I1281019570680242030120250044014895      
130203004401TSTDTL58C62D969GCANDELORO                     ORIANO                              CNDRNO57R28F646I1281019570680242039920250044014895      
130203004401DCLMCT59H03C632QANTONUCCI                     ANNA                                NTNNNA58B54D763E2140219580680122030120250044015150      
130203004401DCLMCT59H03C632QANTONUCCI                     ANNA                                NTNNNA58B54D763E2140219580680122030220250044015150      
130203004401DCLMCT59H03C632QANTONUCCI                     ANNA                                NTNNNA58B54D763E2140219580680122039920250044015150      
130203004401LPPPMR58P12G482ABEVILACQUA                    ANNA                                BVLNNA67T64F205C2241219670680282030120250044015015      
130203004401LPPPMR58P12G482ABEVILACQUA                    ANNA                                BVLNNA67T64F205C2241219670680282039920250044015015      
130203004401                DROBOT                        YANA                                DRBYNA85R70Z138Z2301019850680242030120250044015016      
130203004401                DROBOT                        YANA                                DRBYNA85R70Z138Z2301019850680242039920250044015016      
130203004401trbdtl66a29c771aD'ANDREAMATTEO                ANNA MARIA                          DNDNMR50T64C853U2241219500680282030120250044014901      
130203004401trbdtl66a29c771aD'ANDREAMATTEO                ANNA MARIA                          DNDNMR50T64C853U2241219500680282030220250044014901      
130203004401trbdtl66a29c771aD'ANDREAMATTEO                ANNA MARIA                          DNDNMR50T64C853U2241219500680282039920250044014901      
130203004401LBBMRT89L41G482EFEOLI                         PATRIZIA                            FLEPRZ59E43A783Z2030519590680282030120250044014934      
130203004401LBBMRT89L41G482EFEOLI                         PATRIZIA                            FLEPRZ59E43A783Z2030519590680282039920250044014934      
130203004401DFRGNN54S02E691RGRAZIANI                      ANTONIO                             GRZNTN53S20E691Y1201119530680212030120250044015017      
130203004401DFRGNN54S02E691RGRAZIANI                      ANTONIO                             GRZNTN53S20E691Y1201119530680212039920250044015017      
130203004401NSLDNL56S43G482QTANO                          AUGUSTO                             TNAGST68E08A485Q1080519680680062030120250044015018      
130203004401NSLDNL56S43G482QTANO                          AUGUSTO                             TNAGST68E08A485Q1080519680680062030220250044015018      
